{
  "address": "0xdF26Ad13e14676bE014B2c7264AC21Dbc0aC889C",
  "abi": [
    {
      "inputs": [
        {
          "internalType": "address",
          "name": "_superAdmin",
          "type": "address"
        },
        {
          "internalType": "address[]",
          "name": "_admins",
          "type": "address[]"
        },
        {
          "internalType": "string[]",
          "name": "_nombres",
          "type": "string[]"
        }
      ],
      "stateMutability": "nonpayable",
      "type": "constructor"
    },
    {
      "inputs": [],
      "name": "AccessControlBadConfirmation",
      "type": "error"
    },
    {
      "inputs": [
        {
          "internalType": "address",
          "name": "account",
          "type": "address"
        },
        {
          "internalType": "bytes32",
          "name": "neededRole",
          "type": "bytes32"
        }
      ],
      "name": "AccessControlUnauthorizedAccount",
      "type": "error"
    },
    {
      "anonymous": false,
      "inputs": [
        {
          "indexed": false,
          "internalType": "address",
          "name": "cuenta",
          "type": "address"
        },
        {
          "indexed": false,
          "internalType": "string",
          "name": "nombre",
          "type": "string"
        }
      ],
      "name": "LogAdminCreado",
      "type": "event"
    },
    {
      "anonymous": false,
      "inputs": [
        {
          "indexed": false,
          "internalType": "address",
          "name": "cuentaAnterior",
          "type": "address"
        },
        {
          "indexed": false,
          "internalType": "address",
          "name": "cuentaNueva",
          "type": "address"
        }
      ],
      "name": "LogAdminCuentaModificada",
      "type": "event"
    },
    {
      "anonymous": false,
      "inputs": [
        {
          "indexed": false,
          "internalType": "address",
          "name": "cuenta",
          "type": "address"
        },
        {
          "indexed": false,
          "internalType": "string",
          "name": "nombre",
          "type": "string"
        }
      ],
      "name": "LogAdminEliminado",
      "type": "event"
    },
    {
      "anonymous": false,
      "inputs": [
        {
          "indexed": false,
          "internalType": "address",
          "name": "cuenta",
          "type": "address"
        },
        {
          "indexed": false,
          "internalType": "string",
          "name": "nombreAnterior",
          "type": "string"
        },
        {
          "indexed": false,
          "internalType": "string",
          "name": "nombreNuevo",
          "type": "string"
        }
      ],
      "name": "LogAdminNombreModificado",
      "type": "event"
    },
    {
      "anonymous": false,
      "inputs": [
        {
          "indexed": false,
          "internalType": "address",
          "name": "admin",
          "type": "address"
        },
        {
          "indexed": false,
          "internalType": "uint256",
          "name": "categoria",
          "type": "uint256"
        },
        {
          "indexed": false,
          "internalType": "string",
          "name": "nombre",
          "type": "string"
        },
        {
          "indexed": false,
          "internalType": "bool",
          "name": "estado",
          "type": "bool"
        }
      ],
      "name": "LogCategoriaCreada",
      "type": "event"
    },
    {
      "anonymous": false,
      "inputs": [
        {
          "indexed": false,
          "internalType": "enum Pais",
          "name": "pais",
          "type": "uint8"
        },
        {
          "indexed": false,
          "internalType": "uint256",
          "name": "usuario",
          "type": "uint256"
        },
        {
          "indexed": false,
          "internalType": "string",
          "name": "nombre",
          "type": "string"
        },
        {
          "indexed": false,
          "internalType": "uint256",
          "name": "categoria",
          "type": "uint256"
        },
        {
          "indexed": false,
          "internalType": "uint256",
          "name": "curso",
          "type": "uint256"
        },
        {
          "indexed": false,
          "internalType": "address",
          "name": "certificador",
          "type": "address"
        },
        {
          "indexed": true,
          "internalType": "uint256",
          "name": "idCertificado",
          "type": "uint256"
        },
        {
          "indexed": false,
          "internalType": "uint256",
          "name": "fecha",
          "type": "uint256"
        },
        {
          "indexed": false,
          "internalType": "string",
          "name": "nombreCertificador",
          "type": "string"
        }
      ],
      "name": "LogCertificado",
      "type": "event"
    },
    {
      "anonymous": false,
      "inputs": [
        {
          "indexed": false,
          "internalType": "address",
          "name": "usuario",
          "type": "address"
        },
        {
          "indexed": false,
          "internalType": "string",
          "name": "nombre",
          "type": "string"
        },
        {
          "indexed": false,
          "internalType": "uint256",
          "name": "categoria",
          "type": "uint256"
        },
        {
          "indexed": false,
          "internalType": "uint256",
          "name": "curso",
          "type": "uint256"
        },
        {
          "indexed": false,
          "internalType": "address",
          "name": "certificador",
          "type": "address"
        },
        {
          "indexed": true,
          "internalType": "uint256",
          "name": "idCertificado",
          "type": "uint256"
        },
        {
          "indexed": false,
          "internalType": "uint256",
          "name": "fecha",
          "type": "uint256"
        },
        {
          "indexed": false,
          "internalType": "string",
          "name": "nombreCertificador",
          "type": "string"
        }
      ],
      "name": "LogCertificadoAddress",
      "type": "event"
    },
    {
      "anonymous": false,
      "inputs": [
        {
          "indexed": false,
          "internalType": "enum Pais",
          "name": "pais",
          "type": "uint8"
        },
        {
          "indexed": false,
          "internalType": "uint256",
          "name": "usuario",
          "type": "uint256"
        },
        {
          "indexed": false,
          "internalType": "uint256",
          "name": "categoria",
          "type": "uint256"
        },
        {
          "indexed": false,
          "internalType": "uint256",
          "name": "curso",
          "type": "uint256"
        },
        {
          "indexed": false,
          "internalType": "address",
          "name": "certificador",
          "type": "address"
        }
      ],
      "name": "LogCertificadoEliminado",
      "type": "event"
    },
    {
      "anonymous": false,
      "inputs": [
        {
          "indexed": false,
          "internalType": "address",
          "name": "usuario",
          "type": "address"
        },
        {
          "indexed": false,
          "internalType": "uint256",
          "name": "categoria",
          "type": "uint256"
        },
        {
          "indexed": false,
          "internalType": "uint256",
          "name": "curso",
          "type": "uint256"
        },
        {
          "indexed": false,
          "internalType": "address",
          "name": "certificador",
          "type": "address"
        }
      ],
      "name": "LogCertificadoEliminadoAddress",
      "type": "event"
    },
    {
      "anonymous": false,
      "inputs": [
        {
          "indexed": false,
          "internalType": "address",
          "name": "admin",
          "type": "address"
        },
        {
          "indexed": false,
          "internalType": "uint256",
          "name": "categoria",
          "type": "uint256"
        },
        {
          "indexed": false,
          "internalType": "uint256",
          "name": "curso",
          "type": "uint256"
        },
        {
          "indexed": false,
          "internalType": "string",
          "name": "nombreCurso",
          "type": "string"
        },
        {
          "indexed": false,
          "internalType": "string",
          "name": "descripcion",
          "type": "string"
        },
        {
          "indexed": false,
          "internalType": "uint256",
          "name": "duracion",
          "type": "uint256"
        },
        {
          "indexed": false,
          "internalType": "uint8",
          "name": "tipoCertificado",
          "type": "uint8"
        },
        {
          "indexed": false,
          "internalType": "address",
          "name": "certificador",
          "type": "address"
        },
        {
          "indexed": false,
          "internalType": "bool",
          "name": "activo",
          "type": "bool"
        }
      ],
      "name": "LogCursoCreado",
      "type": "event"
    },
    {
      "anonymous": false,
      "inputs": [
        {
          "indexed": false,
          "internalType": "address",
          "name": "admin",
          "type": "address"
        },
        {
          "indexed": false,
          "internalType": "uint256",
          "name": "categoria",
          "type": "uint256"
        },
        {
          "indexed": false,
          "internalType": "uint256",
          "name": "curso",
          "type": "uint256"
        },
        {
          "indexed": false,
          "internalType": "string",
          "name": "nombreCurso",
          "type": "string"
        },
        {
          "indexed": false,
          "internalType": "string",
          "name": "descripcion",
          "type": "string"
        },
        {
          "indexed": false,
          "internalType": "uint256",
          "name": "duracion",
          "type": "uint256"
        },
        {
          "indexed": false,
          "internalType": "uint8",
          "name": "tipoCertificado",
          "type": "uint8"
        },
        {
          "indexed": false,
          "internalType": "address",
          "name": "certificador",
          "type": "address"
        },
        {
          "indexed": false,
          "internalType": "bool",
          "name": "activo",
          "type": "bool"
        }
      ],
      "name": "LogCursoModificado",
      "type": "event"
    },
    {
      "anonymous": false,
      "inputs": [
        {
          "indexed": false,
          "internalType": "address",
          "name": "cuentaAnterior",
          "type": "address"
        },
        {
          "indexed": false,
          "internalType": "address",
          "name": "cuentaNueva",
          "type": "address"
        }
      ],
      "name": "LogSuperAdminTransferido",
      "type": "event"
    },
    {
      "anonymous": false,
      "inputs": [
        {
          "indexed": true,
          "internalType": "bytes32",
          "name": "role",
          "type": "bytes32"
        },
        {
          "indexed": true,
          "internalType": "bytes32",
          "name": "previousAdminRole",
          "type": "bytes32"
        },
        {
          "indexed": true,
          "internalType": "bytes32",
          "name": "newAdminRole",
          "type": "bytes32"
        }
      ],
      "name": "RoleAdminChanged",
      "type": "event"
    },
    {
      "anonymous": false,
      "inputs": [
        {
          "indexed": true,
          "internalType": "bytes32",
          "name": "role",
          "type": "bytes32"
        },
        {
          "indexed": true,
          "internalType": "address",
          "name": "account",
          "type": "address"
        },
        {
          "indexed": true,
          "internalType": "address",
          "name": "sender",
          "type": "address"
        }
      ],
      "name": "RoleGranted",
      "type": "event"
    },
    {
      "anonymous": false,
      "inputs": [
        {
          "indexed": true,
          "internalType": "bytes32",
          "name": "role",
          "type": "bytes32"
        },
        {
          "indexed": true,
          "internalType": "address",
          "name": "account",
          "type": "address"
        },
        {
          "indexed": true,
          "internalType": "address",
          "name": "sender",
          "type": "address"
        }
      ],
      "name": "RoleRevoked",
      "type": "event"
    },
    {
      "inputs": [],
      "name": "ADMIN_ROLE",
      "outputs": [
        {
          "internalType": "bytes32",
          "name": "",
          "type": "bytes32"
        }
      ],
      "stateMutability": "view",
      "type": "function"
    },
    {
      "inputs": [],
      "name": "DEFAULT_ADMIN_ROLE",
      "outputs": [
        {
          "internalType": "bytes32",
          "name": "",
          "type": "bytes32"
        }
      ],
      "stateMutability": "view",
      "type": "function"
    },
    {
      "inputs": [
        {
          "internalType": "uint256",
          "name": "categoria",
          "type": "uint256"
        },
        {
          "internalType": "string",
          "name": "nombreCurso",
          "type": "string"
        },
        {
          "internalType": "string",
          "name": "descripcion",
          "type": "string"
        },
        {
          "internalType": "uint256",
          "name": "duracion",
          "type": "uint256"
        },
        {
          "internalType": "uint8",
          "name": "tipoCertificado",
          "type": "uint8"
        },
        {
          "internalType": "address",
          "name": "certificador",
          "type": "address"
        },
        {
          "internalType": "bool",
          "name": "activo",
          "type": "bool"
        }
      ],
      "name": "agregarCurso",
      "outputs": [],
      "stateMutability": "nonpayable",
      "type": "function"
    },
    {
      "inputs": [
        {
          "internalType": "uint256",
          "name": "",
          "type": "uint256"
        }
      ],
      "name": "arregloAdmins",
      "outputs": [
        {
          "internalType": "address",
          "name": "",
          "type": "address"
        }
      ],
      "stateMutability": "view",
      "type": "function"
    },
    {
      "inputs": [
        {
          "internalType": "uint256",
          "name": "",
          "type": "uint256"
        }
      ],
      "name": "arregloCategorias",
      "outputs": [
        {
          "internalType": "string",
          "name": "nombre",
          "type": "string"
        },
        {
          "internalType": "bool",
          "name": "activa",
          "type": "bool"
        }
      ],
      "stateMutability": "view",
      "type": "function"
    },
    {
      "inputs": [
        {
          "internalType": "uint256",
          "name": "",
          "type": "uint256"
        }
      ],
      "name": "arregloCursosPorCategoria",
      "outputs": [
        {
          "internalType": "uint256",
          "name": "",
          "type": "uint256"
        }
      ],
      "stateMutability": "view",
      "type": "function"
    },
    {
      "inputs": [
        {
          "internalType": "address",
          "name": "cuentaNueva",
          "type": "address"
        }
      ],
      "name": "cambiarSuperAdmin",
      "outputs": [],
      "stateMutability": "nonpayable",
      "type": "function"
    },
    {
      "inputs": [
        {
          "internalType": "address[]",
          "name": "usuarios",
          "type": "address[]"
        },
        {
          "internalType": "string[]",
          "name": "nombres",
          "type": "string[]"
        },
        {
          "internalType": "uint256",
          "name": "categoria",
          "type": "uint256"
        },
        {
          "internalType": "uint256",
          "name": "curso",
          "type": "uint256"
        },
        {
          "internalType": "string",
          "name": "nombreCertificador",
          "type": "string"
        }
      ],
      "name": "certificarAddress",
      "outputs": [],
      "stateMutability": "nonpayable",
      "type": "function"
    },
    {
      "inputs": [
        {
          "internalType": "enum Pais[]",
          "name": "paises",
          "type": "uint8[]"
        },
        {
          "internalType": "uint256[]",
          "name": "idUsuarios",
          "type": "uint256[]"
        },
        {
          "internalType": "string[]",
          "name": "nombres",
          "type": "string[]"
        },
        {
          "internalType": "uint256",
          "name": "categoria",
          "type": "uint256"
        },
        {
          "internalType": "uint256",
          "name": "curso",
          "type": "uint256"
        },
        {
          "internalType": "string",
          "name": "nombreCertificador",
          "type": "string"
        }
      ],
      "name": "certificarId",
      "outputs": [],
      "stateMutability": "nonpayable",
      "type": "function"
    },
    {
      "inputs": [
        {
          "internalType": "address",
          "name": "admin",
          "type": "address"
        },
        {
          "internalType": "string",
          "name": "nombre",
          "type": "string"
        }
      ],
      "name": "crearAdmin",
      "outputs": [],
      "stateMutability": "nonpayable",
      "type": "function"
    },
    {
      "inputs": [
        {
          "internalType": "string",
          "name": "nombre",
          "type": "string"
        }
      ],
      "name": "crearCategoria",
      "outputs": [],
      "stateMutability": "nonpayable",
      "type": "function"
    },
    {
      "inputs": [
        {
          "internalType": "enum Pais",
          "name": "pais",
          "type": "uint8"
        },
        {
          "internalType": "uint256",
          "name": "usuario",
          "type": "uint256"
        }
      ],
      "name": "datosYCertificadosUsuario",
      "outputs": [
        {
          "components": [
            {
              "internalType": "uint256",
              "name": "categoria",
              "type": "uint256"
            },
            {
              "internalType": "uint256",
              "name": "curso",
              "type": "uint256"
            },
            {
              "internalType": "uint256",
              "name": "idCertificado",
              "type": "uint256"
            }
          ],
          "internalType": "struct Certificados.EstructuraCursoUsuario[]",
          "name": "",
          "type": "tuple[]"
        },
        {
          "internalType": "string",
          "name": "",
          "type": "string"
        }
      ],
      "stateMutability": "view",
      "type": "function"
    },
    {
      "inputs": [
        {
          "internalType": "address",
          "name": "usuario",
          "type": "address"
        }
      ],
      "name": "datosYCertificadosUsuarioAddress",
      "outputs": [
        {
          "components": [
            {
              "internalType": "uint256",
              "name": "categoria",
              "type": "uint256"
            },
            {
              "internalType": "uint256",
              "name": "curso",
              "type": "uint256"
            },
            {
              "internalType": "uint256",
              "name": "idCertificado",
              "type": "uint256"
            }
          ],
          "internalType": "struct Certificados.EstructuraCursoUsuario[]",
          "name": "",
          "type": "tuple[]"
        },
        {
          "internalType": "string",
          "name": "",
          "type": "string"
        }
      ],
      "stateMutability": "view",
      "type": "function"
    },
    {
      "inputs": [
        {
          "internalType": "address",
          "name": "usuario",
          "type": "address"
        },
        {
          "internalType": "uint256",
          "name": "categoria",
          "type": "uint256"
        },
        {
          "internalType": "uint256",
          "name": "curso",
          "type": "uint256"
        }
      ],
      "name": "eliminarCertificadoAddress",
      "outputs": [],
      "stateMutability": "nonpayable",
      "type": "function"
    },
    {
      "inputs": [
        {
          "internalType": "enum Pais",
          "name": "pais",
          "type": "uint8"
        },
        {
          "internalType": "uint256",
          "name": "usuario",
          "type": "uint256"
        },
        {
          "internalType": "uint256",
          "name": "categoria",
          "type": "uint256"
        },
        {
          "internalType": "uint256",
          "name": "curso",
          "type": "uint256"
        }
      ],
      "name": "eliminarCertificadoId",
      "outputs": [],
      "stateMutability": "nonpayable",
      "type": "function"
    },
    {
      "inputs": [
        {
          "internalType": "address",
          "name": "cuenta",
          "type": "address"
        }
      ],
      "name": "esAdmin",
      "outputs": [
        {
          "internalType": "bool",
          "name": "",
          "type": "bool"
        }
      ],
      "stateMutability": "view",
      "type": "function"
    },
    {
      "inputs": [
        {
          "internalType": "address",
          "name": "usuario",
          "type": "address"
        },
        {
          "internalType": "uint256",
          "name": "categoria",
          "type": "uint256"
        },
        {
          "internalType": "uint256",
          "name": "curso",
          "type": "uint256"
        }
      ],
      "name": "estaCertificadoAddress",
      "outputs": [
        {
          "internalType": "bool",
          "name": "",
          "type": "bool"
        }
      ],
      "stateMutability": "view",
      "type": "function"
    },
    {
      "inputs": [
        {
          "internalType": "enum Pais",
          "name": "pais",
          "type": "uint8"
        },
        {
          "internalType": "uint256",
          "name": "usuario",
          "type": "uint256"
        },
        {
          "internalType": "uint256",
          "name": "categoria",
          "type": "uint256"
        },
        {
          "internalType": "uint256",
          "name": "curso",
          "type": "uint256"
        }
      ],
      "name": "estaCertificadoId",
      "outputs": [
        {
          "internalType": "bool",
          "name": "",
          "type": "bool"
        }
      ],
      "stateMutability": "view",
      "type": "function"
    },
    {
      "inputs": [
        {
          "internalType": "bytes32",
          "name": "role",
          "type": "bytes32"
        }
      ],
      "name": "getRoleAdmin",
      "outputs": [
        {
          "internalType": "bytes32",
          "name": "",
          "type": "bytes32"
        }
      ],
      "stateMutability": "view",
      "type": "function"
    },
    {
      "inputs": [
        {
          "internalType": "bytes32",
          "name": "role",
          "type": "bytes32"
        },
        {
          "internalType": "address",
          "name": "account",
          "type": "address"
        }
      ],
      "name": "grantRole",
      "outputs": [],
      "stateMutability": "nonpayable",
      "type": "function"
    },
    {
      "inputs": [
        {
          "internalType": "bytes32",
          "name": "role",
          "type": "bytes32"
        },
        {
          "internalType": "address",
          "name": "account",
          "type": "address"
        }
      ],
      "name": "hasRole",
      "outputs": [
        {
          "internalType": "bool",
          "name": "",
          "type": "bool"
        }
      ],
      "stateMutability": "view",
      "type": "function"
    },
    {
      "inputs": [
        {
          "internalType": "address",
          "name": "",
          "type": "address"
        }
      ],
      "name": "mapAdmin",
      "outputs": [
        {
          "internalType": "uint256",
          "name": "indice",
          "type": "uint256"
        },
        {
          "internalType": "string",
          "name": "nombre",
          "type": "string"
        }
      ],
      "stateMutability": "view",
      "type": "function"
    },
    {
      "inputs": [
        {
          "internalType": "uint256",
          "name": "categoria",
          "type": "uint256"
        },
        {
          "internalType": "uint256",
          "name": "curso",
          "type": "uint256"
        }
      ],
      "name": "mapCurso",
      "outputs": [
        {
          "internalType": "string",
          "name": "nombreCurso",
          "type": "string"
        },
        {
          "internalType": "string",
          "name": "descripcion",
          "type": "string"
        },
        {
          "internalType": "uint256",
          "name": "duracion",
          "type": "uint256"
        },
        {
          "internalType": "uint8",
          "name": "tipoCertificado",
          "type": "uint8"
        },
        {
          "internalType": "address",
          "name": "certificador",
          "type": "address"
        },
        {
          "internalType": "bool",
          "name": "activo",
          "type": "bool"
        }
      ],
      "stateMutability": "view",
      "type": "function"
    },
    {
      "inputs": [
        {
          "internalType": "enum Pais",
          "name": "",
          "type": "uint8"
        },
        {
          "internalType": "uint256",
          "name": "usuario",
          "type": "uint256"
        }
      ],
      "name": "mapUsuario",
      "outputs": [
        {
          "internalType": "string",
          "name": "nombre",
          "type": "string"
        }
      ],
      "stateMutability": "view",
      "type": "function"
    },
    {
      "inputs": [
        {
          "internalType": "address",
          "name": "usuario",
          "type": "address"
        }
      ],
      "name": "mapUsuarioAddress",
      "outputs": [
        {
          "internalType": "string",
          "name": "nombre",
          "type": "string"
        }
      ],
      "stateMutability": "view",
      "type": "function"
    },
    {
      "inputs": [
        {
          "internalType": "uint256",
          "name": "categoria",
          "type": "uint256"
        },
        {
          "internalType": "string",
          "name": "nombre",
          "type": "string"
        },
        {
          "internalType": "bool",
          "name": "estado",
          "type": "bool"
        }
      ],
      "name": "modificarCategoria",
      "outputs": [],
      "stateMutability": "nonpayable",
      "type": "function"
    },
    {
      "inputs": [
        {
          "internalType": "address",
          "name": "cuentaAnterior",
          "type": "address"
        },
        {
          "internalType": "address",
          "name": "cuentaNueva",
          "type": "address"
        }
      ],
      "name": "modificarCuentaAdmin",
      "outputs": [],
      "stateMutability": "nonpayable",
      "type": "function"
    },
    {
      "inputs": [
        {
          "internalType": "uint256",
          "name": "categoria",
          "type": "uint256"
        },
        {
          "internalType": "uint256",
          "name": "curso",
          "type": "uint256"
        },
        {
          "internalType": "string",
          "name": "nombreCurso",
          "type": "string"
        },
        {
          "internalType": "string",
          "name": "descripcion",
          "type": "string"
        },
        {
          "internalType": "uint256",
          "name": "duracion",
          "type": "uint256"
        },
        {
          "internalType": "uint8",
          "name": "tipoCertificado",
          "type": "uint8"
        },
        {
          "internalType": "address",
          "name": "certificador",
          "type": "address"
        },
        {
          "internalType": "bool",
          "name": "activo",
          "type": "bool"
        }
      ],
      "name": "modificarCurso",
      "outputs": [],
      "stateMutability": "nonpayable",
      "type": "function"
    },
    {
      "inputs": [
        {
          "internalType": "address",
          "name": "admin",
          "type": "address"
        },
        {
          "internalType": "string",
          "name": "nombreNuevo",
          "type": "string"
        }
      ],
      "name": "modificarNombreAdmin",
      "outputs": [],
      "stateMutability": "nonpayable",
      "type": "function"
    },
    {
      "inputs": [],
      "name": "mostrarAdmins",
      "outputs": [
        {
          "internalType": "address[]",
          "name": "",
          "type": "address[]"
        },
        {
          "internalType": "string[]",
          "name": "",
          "type": "string[]"
        }
      ],
      "stateMutability": "view",
      "type": "function"
    },
    {
      "inputs": [],
      "name": "mostrarArregloCursosPorCategoria",
      "outputs": [
        {
          "internalType": "uint256[]",
          "name": "",
          "type": "uint256[]"
        }
      ],
      "stateMutability": "view",
      "type": "function"
    },
    {
      "inputs": [],
      "name": "mostrarArregloDeCategorias",
      "outputs": [
        {
          "components": [
            {
              "internalType": "string",
              "name": "nombre",
              "type": "string"
            },
            {
              "internalType": "bool",
              "name": "activa",
              "type": "bool"
            }
          ],
          "internalType": "struct Cursos.EstructuraCategoria[]",
          "name": "",
          "type": "tuple[]"
        }
      ],
      "stateMutability": "view",
      "type": "function"
    },
    {
      "inputs": [],
      "name": "mostrarCantidadDeCursos",
      "outputs": [
        {
          "internalType": "uint256",
          "name": "",
          "type": "uint256"
        }
      ],
      "stateMutability": "view",
      "type": "function"
    },
    {
      "inputs": [
        {
          "internalType": "uint256",
          "name": "categoria",
          "type": "uint256"
        },
        {
          "internalType": "uint256",
          "name": "curso",
          "type": "uint256"
        }
      ],
      "name": "mostrarCategoriaYCurso",
      "outputs": [
        {
          "internalType": "string",
          "name": "",
          "type": "string"
        },
        {
          "components": [
            {
              "internalType": "string",
              "name": "nombreCurso",
              "type": "string"
            },
            {
              "internalType": "string",
              "name": "descripcion",
              "type": "string"
            },
            {
              "internalType": "uint256",
              "name": "duracion",
              "type": "uint256"
            },
            {
              "internalType": "uint8",
              "name": "tipoCertificado",
              "type": "uint8"
            },
            {
              "internalType": "address",
              "name": "certificador",
              "type": "address"
            },
            {
              "internalType": "bool",
              "name": "activo",
              "type": "bool"
            }
          ],
          "internalType": "struct Cursos.EstructuraCurso",
          "name": "",
          "type": "tuple"
        }
      ],
      "stateMutability": "view",
      "type": "function"
    },
    {
      "inputs": [
        {
          "internalType": "address",
          "name": "admin",
          "type": "address"
        }
      ],
      "name": "removerAdmin",
      "outputs": [],
      "stateMutability": "nonpayable",
      "type": "function"
    },
    {
      "inputs": [
        {
          "internalType": "bytes32",
          "name": "role",
          "type": "bytes32"
        },
        {
          "internalType": "address",
          "name": "callerConfirmation",
          "type": "address"
        }
      ],
      "name": "renounceRole",
      "outputs": [],
      "stateMutability": "nonpayable",
      "type": "function"
    },
    {
      "inputs": [
        {
          "internalType": "bytes32",
          "name": "role",
          "type": "bytes32"
        },
        {
          "internalType": "address",
          "name": "account",
          "type": "address"
        }
      ],
      "name": "revokeRole",
      "outputs": [],
      "stateMutability": "nonpayable",
      "type": "function"
    },
    {
      "inputs": [],
      "name": "superAdmin",
      "outputs": [
        {
          "internalType": "address",
          "name": "",
          "type": "address"
        }
      ],
      "stateMutability": "view",
      "type": "function"
    },
    {
      "inputs": [
        {
          "internalType": "bytes4",
          "name": "interfaceId",
          "type": "bytes4"
        }
      ],
      "name": "supportsInterface",
      "outputs": [
        {
          "internalType": "bool",
          "name": "",
          "type": "bool"
        }
      ],
      "stateMutability": "view",
      "type": "function"
    }
  ],
  "transactionHash": "0x450c92c9b00eae08035d8c2a955f94f840f51109e95f34e0a04d59fe444e91ed",
  "args": [
    "0x69B5f27749bC2Fd1d8f3aeB43Ea68F6952A478b0",
    [
      "0x5700F03F87db485fdb90e18b3100F00b235886f1",
      "0x3011b92C96Acc5Af62669cE441ccf6516b3c3E60"
    ],
    [
      "ADMIN_RUBEN",
      "ADMIN_JIMY"
    ]
  ],
  "numDeployments": 1,
  "solcInputHash": "09ea66c524e4b4cdc8aaf9a4e12e0040",
  "bytecode": "0x60806040523480156200001157600080fd5b5060405162004ecf38038062004ecf8339810160408190526200003491620006a6565b82828282828262000047600033620000e1565b50600380546001600160a01b0319163317905560005b8251811015620000c657620000b18382815181106200008057620000806200078a565b60200260200101518383815181106200009d576200009d6200078a565b60200260200101516200019060201b60201c565b80620000bd81620007a0565b9150506200005d565b50620000d2836200037f565b50505050505050505062000967565b6000828152602081815260408083206001600160a01b038516845290915281205460ff1662000186576000838152602081815260408083206001600160a01b03861684529091529020805460ff191660011790556200013d3390565b6001600160a01b0316826001600160a01b0316847f2f8788117e7eff1d82e926ec794901d17c78024a50270940304540a733656f0d60405160405180910390a45060016200018a565b5060005b92915050565b60006200019d816200040d565b6001600160a01b03831660009081527f7d7ffb7a348e1c6a02869081a26547b49160dd3df72d1d75a570eb9b698292ec602052604090205460ff16156200022b5760405162461bcd60e51b815260206004820152601e60248201527f4375656e746120796120706f73656520726f6c2041444d494e5f524f4c45000060448201526064015b60405180910390fd5b6001600160a01b0383166200028f5760405162461bcd60e51b815260206004820152602360248201527f4375656e74612061646d696e206e6f207075656465207365722061646472657360448201526207320360ec1b606482015260840162000222565b6001600160a01b0383166000908152600260205260409020600101620002b6838262000857565b50600180546001600160a01b03851660008181526002602052604081208390558284018455929092527fb10e2d527612073b26eecdfd717e6a320cf44b4afac2b0732d9fcbe2b7fa0cf60180546001600160a01b03191690911790556200033e7fa49807205ce4d355092ef5a8a18f56e8913cf4a201fbe287825b095693c2177584620000e1565b507f0f2484d4ed3d6191c79a12f2340ff9483955231ba51001ea98c12d858464536583836040516200037292919062000923565b60405180910390a1505050565b60006200038c816200040d565b6003546001600160a01b0316620003a56000826200041c565b50620003b3600084620000e1565b50600380546001600160a01b0319166001600160a01b0385811691821790925560408051928416835260208301919091527f2b4b2b4e35d8c42f3f16cf9559890fa1d5f9866cb35ff35ff451dfac633fb695910162000372565b620004198133620004a1565b50565b6000828152602081815260408083206001600160a01b038516845290915281205460ff161562000186576000838152602081815260408083206001600160a01b0386168085529252808320805460ff1916905551339286917ff6391f5c32d9c69d2a47ea670b442974b53935d1edc7fd64eb21e047a839171b9190a45060016200018a565b6000828152602081815260408083206001600160a01b038516845290915290205460ff16620004f65760405163e2517d3f60e01b81526001600160a01b03821660048201526024810183905260440162000222565b5050565b80516001600160a01b03811681146200051257600080fd5b919050565b634e487b7160e01b600052604160045260246000fd5b604051601f8201601f191681016001600160401b038111828210171562000558576200055862000517565b604052919050565b60006001600160401b038211156200057c576200057c62000517565b5060051b60200190565b60005b83811015620005a357818101518382015260200162000589565b50506000910152565b6000601f8381840112620005bf57600080fd5b82516020620005d8620005d28362000560565b6200052d565b82815260059290921b85018101918181019087841115620005f857600080fd5b8287015b848110156200069a5780516001600160401b03808211156200061e5760008081fd5b818a0191508a603f830112620006345760008081fd5b858201516040828211156200064d576200064d62000517565b62000660828b01601f191689016200052d565b92508183528c81838601011115620006785760008081fd5b620006898289850183870162000586565b5050845250918301918301620005fc565b50979650505050505050565b600080600060608486031215620006bc57600080fd5b620006c784620004fa565b602085810151919450906001600160401b0380821115620006e757600080fd5b818701915087601f830112620006fc57600080fd5b81516200070d620005d28262000560565b81815260059190911b8301840190848101908a8311156200072d57600080fd5b938501935b8285101562000756576200074685620004fa565b8252938501939085019062000732565b60408a015190975094505050808311156200077057600080fd5b50506200078086828701620005ac565b9150509250925092565b634e487b7160e01b600052603260045260246000fd5b600060018201620007c157634e487b7160e01b600052601160045260246000fd5b5060010190565b600181811c90821680620007dd57607f821691505b602082108103620007fe57634e487b7160e01b600052602260045260246000fd5b50919050565b601f8211156200085257600081815260208120601f850160051c810160208610156200082d5750805b601f850160051c820191505b818110156200084e5782815560010162000839565b5050505b505050565b81516001600160401b0381111562000873576200087362000517565b6200088b81620008848454620007c8565b8462000804565b602080601f831160018114620008c35760008415620008aa5750858301515b600019600386901b1c1916600185901b1785556200084e565b600085815260208120601f198616915b82811015620008f457888601518255948401946001909101908401620008d3565b5085821015620009135787850151600019600388901b60f8161c191681555b5050505050600190811b01905550565b60018060a01b038316815260406020820152600082518060408401526200095281606085016020870162000586565b601f01601f1916919091016060019392505050565b61455880620009776000396000f3fe608060405234801561001057600080fd5b506004361061023d5760003560e01c806385d008981161013b578063c9849fd2116100b8578063e9ebdb051161007c578063e9ebdb0514610560578063efb0a94f14610581578063f0e77fec14610589578063f7f0dd7b1461059c578063f88a4696146105af57600080fd5b8063c9849fd2146104e1578063d20ba47e146104f4578063d51dddd714610507578063d547741f14610528578063e86cb7831461053b57600080fd5b8063aba3110f116100ff578063aba3110f14610482578063b0348cca14610495578063b4e9b5b6146104a8578063b8ad4b86146104bb578063bee533e1146104ce57600080fd5b806385d008981461041257806388db935e146104335780638ded0cb91461044657806391d1485414610467578063a217fddf1461047a57600080fd5b80632e43f40d116101c95780634e9aa0711161018d5780634e9aa071146103af57806367f551a5146103c257806375b238fc146103d557806379bfba95146103ea57806382f4071c146103ff57600080fd5b80632e43f40d146103415780632f2ff15d1461035457806336568abe146103675780633fa991bb1461037a5780634e1ce4281461039a57600080fd5b8063158e7c5111610210578063158e7c51146102ac5780631d582232146102bf578063248a9ca3146102d2578063248c26e21461030357806329575f6a1461031657600080fd5b80630120136c1461024257806301ffc9a7146102615780630c1feb2e146102845780630d32355914610299575b600080fd5b61024a6105c2565b604051610258929190613499565b60405180910390f35b61027461026f36600461353a565b610787565b6040519015158152602001610258565b610297610292366004613578565b6107be565b005b6102976102a73660046135c8565b610b6a565b6102746102ba3660046135c8565b610dcc565b6102976102cd366004613668565b610de6565b6102f56102e0366004613741565b60009081526020819052604090206001015490565b604051908152602001610258565b61029761031136600461375a565b610f97565b600354610329906001600160a01b031681565b6040516001600160a01b039091168152602001610258565b61032961034f366004613741565b61110a565b6102976103623660046137ac565b611134565b6102976103753660046137ac565b61115f565b61038d6103883660046135c8565b611197565b60405161025891906137d8565b6103a2611237565b60405161025891906137eb565b6102976103bd366004613850565b61128f565b6102f56103d0366004613741565b6114dd565b6102f560008051602061450383398151915281565b6103f26114fe565b604051610258919061390d565b61029761040d366004613985565b6115fe565b610425610420366004613a31565b611794565b604051610258929190613a5b565b610297610441366004613ac6565b611938565b610459610454366004613741565b611c5c565b604051610258929190613af9565b6102746104753660046137ac565b611d1b565b6102f5600081565b61038d610490366004613a31565b611d44565b6102976104a33660046135c8565b611d6c565b6102976104b6366004613b1d565b611dfc565b6102746104c9366004613ac6565b6120a7565b6102746104dc366004613578565b6121fe565b6104256104ef3660046135c8565b61238b565b610297610502366004613bcf565b6124b7565b61051a6105153660046135c8565b6125fa565b604051610258929190613c2c565b6102976105363660046137ac565b61269f565b61054e610549366004613c45565b6126c4565b60405161025896959493929190613c67565b61057361056e366004613c45565b612824565b604051610258929190613cc0565b6102f5612a9a565b610297610597366004613d4a565b612aed565b6102976105aa366004613d74565b612d0a565b6102976105bd366004613dcb565b612e13565b60608060006001805490506001600160401b038111156105e4576105e4613db5565b60405190808252806020026020018201604052801561061757816020015b60608152602001906001900390816106025790505b50905060005b60015481101561071e57600260006001838154811061063e5761063e613e8c565b60009182526020808320909101546001600160a01b031683528201929092526040019020600101805461067090613ea2565b80601f016020809104026020016040519081016040528092919081815260200182805461069c90613ea2565b80156106e95780601f106106be576101008083540402835291602001916106e9565b820191906000526020600020905b8154815290600101906020018083116106cc57829003601f168201915b505050505082828151811061070057610700613e8c565b6020026020010181905250808061071690613eec565b91505061061d565b506001818180548060200260200160405190810160405280929190818152602001828054801561077757602002820191906000526020600020905b81546001600160a01b03168152600190910190602001808311610759575b5050505050915092509250509091565b60006001600160e01b03198216637965db0b60e01b14806107b857506301ffc9a760e01b6001600160e01b03198316145b92915050565b600082815260066020908152604080832084845290915290206003015461010090046001600160a01b031633146108105760405162461bcd60e51b815260040161080790613f05565b60405180910390fd5b61081c848484846121fe565b6108385760405162461bcd60e51b815260040161080790613f3c565b600082815260066020908152604080832084845290915290206003015461010090046001600160a01b031661087f5760405162461bcd60e51b815260040161080790613f80565b6000600860008660c381111561089757610897613fa9565b60c38111156108a8576108a8613fa9565b81526020019081526020016000206000858152602001908152602001600020600001805480602002602001604051908101604052809291908181526020016000905b8282101561093a57838290600052602060002090600302016040518060600160405290816000820154815260200160018201548152602001600282015481525050815260200190600101906108ea565b5050505090506000805b8251811015610b1e578483828151811061096057610960613e8c565b60200260200101516000015114801561099557508383828151811061098757610987613e8c565b602002602001015160200151145b15610b0c576001915082600184516109ad9190613fbf565b815181106109bd576109bd613e8c565b6020026020010151600860008960c38111156109db576109db613fa9565b60c38111156109ec576109ec613fa9565b815260200190815260200160002060008881526020019081526020016000206000018281548110610a1f57610a1f613e8c565b9060005260206000209060030201600082015181600001556020820151816001015560408201518160020155905050600860008860c3811115610a6457610a64613fa9565b60c3811115610a7557610a75613fa9565b81526020019081526020016000206000878152602001908152602001600020600001805480610aa657610aa6613fd2565b600082815260208120600360001990930192830201818155600181018290556002015590556040517fecdd44ed77b0efadbffcb19ceaa3cf4b9c16644e99deb227336c6d4486568ae990610b03908990899089908990339061400a565b60405180910390a15b80610b1681613eec565b915050610944565b5080610b625760405162461bcd60e51b8152602060048201526013602482015272437572736f206e6f20656e636f6e747261646f60681b6044820152606401610807565b505050505050565b6000610b7581612fb0565b610b8d60008051602061450383398151915283611d1b565b610bd95760405162461bcd60e51b815260206004820152601e60248201527f4375656e7461206e6f20706f73656520726f6c2041444d494e5f524f4c4500006044820152606401610807565b610bf160008051602061450383398151915283612fbd565b50600060026000846001600160a01b03166001600160a01b0316815260200190815260200160002060405180604001604052908160008201548152602001600182018054610c3e90613ea2565b80601f0160208091040260200160405190810160405280929190818152602001828054610c6a90613ea2565b8015610cb75780601f10610c8c57610100808354040283529160200191610cb7565b820191906000526020600020905b815481529060010190602001808311610c9a57829003601f168201915b505050505081525050905060006001808080549050610cd69190613fbf565b81548110610ce657610ce6613e8c565b6000918252602090912001548251600180546001600160a01b03909316935083929091908110610d1857610d18613e8c565b600091825260208083209190910180546001600160a01b0319166001600160a01b03948516179055845192841682526002905260409020556001805480610d6157610d61613fd2565b6001900381819060005260206000200160006101000a8154906001600160a01b03021916905590557f1ef088f98cafffe55240b6a6a70d830adba6863e01024f5580dd90654eb519d5848360200151604051610dbe929190614044565b60405180910390a150505050565b60006107b860008051602061450383398151915283611d1b565b600084815260066020908152604080832086845290915290206003015461010090046001600160a01b03163314610e2f5760405162461bcd60e51b815260040161080790613f05565b6000848152600660209081526040808320868452909152902060030154600160a81b900460ff16610e945760405162461bcd60e51b815260206004820152600f60248201526e437572736f206e6f2061637469766f60881b6044820152606401610807565b60005b87811015610f8a57610f788b8b83818110610eb457610eb4613e8c565b9050602002016020810190610ec99190614068565b8a8a84818110610edb57610edb613e8c565b90506020020135898985818110610ef457610ef4613e8c565b9050602002810190610f069190614083565b8080601f01602080910402602001604051908101604052809392919081815260200183838082843760009201919091525050604080516020601f8b018190048102820181019092528981528c93508b9250908a908a908190840183828082843760009201919091525061303092505050565b80610f8281613eec565b915050610e97565b5050505050505050505050565b6000610fa281612fb0565b610fba60008051602061450383398151915285611d1b565b610ff85760405162461bcd60e51b815260206004820152600f60248201526e41646d696e206e6f2065786973746560881b6044820152606401610807565b6001600160a01b0384166000908152600260205260408120600101805461101e90613ea2565b80601f016020809104026020016040519081016040528092919081815260200182805461104a90613ea2565b80156110975780601f1061106c57610100808354040283529160200191611097565b820191906000526020600020905b81548152906001019060200180831161107a57829003601f168201915b505050506001600160a01b0387166000908152600260205260409020919250506001016110c584868361410f565b507f506c2a30f6f1668947f0e53c368ea61d446e9d78927fef0388ce28dba59d9026858286866040516110fb94939291906141f7565b60405180910390a15050505050565b6001818154811061111a57600080fd5b6000918252602090912001546001600160a01b0316905081565b60008281526020819052604090206001015461114f81612fb0565b611159838361321e565b50505050565b6001600160a01b03811633146111885760405163334bd91960e11b815260040160405180910390fd5b6111928282612fbd565b505050565b60096020526000908152604090206001810180546111b490613ea2565b80601f01602080910402602001604051908101604052809291908181526020018280546111e090613ea2565b801561122d5780601f106112025761010080835404028352916020019161122d565b820191906000526020600020905b81548152906001019060200180831161121057829003601f168201915b5050505050905081565b6060600580548060200260200160405190810160405280929190818152602001828054801561128557602002820191906000526020600020905b815481526020019060010190808311611271575b5050505050905090565b6000805160206145038339815191526112a781612fb0565b60008b81526006602090815260408083208d845290915290206003015461010090046001600160a01b03166112ee5760405162461bcd60e51b815260040161080790613f80565b6001600160a01b0383166113445760405162461bcd60e51b815260206004820152601f60248201527f4164647265737320636572746966696361646f7220696e636f727265637461006044820152606401610807565b6040518060c001604052808a8a8080601f016020809104026020016040519081016040528093929190818152602001838380828437600092019190915250505090825250604080516020601f8b0181900481028201810190925289815291810191908a908a90819084018382808284376000920182905250938552505050602080830189905260ff88166040808501919091526001600160a01b03881660608501528615156080909401939093528e8252600681528282208e835290522081518190611410908261422e565b5060208201516001820190611425908261422e565b506040828101516002830155606083015160039092018054608085015160a0909501511515600160a81b0260ff60a81b196001600160a01b03909616610100026001600160a81b031990921660ff90951694909417179390931691909117909155517fffe92cd24ba9317466011a441e832b5c253e791696e6d9e73edc0d066db8af28906114c89033908e908e908e908e908e908e908e908e908e908e906142ed565b60405180910390a15050505050505050505050565b600581815481106114ed57600080fd5b600091825260209091200154905081565b60606004805480602002602001604051908101604052809291908181526020016000905b828210156115f5578382906000526020600020906002020160405180604001604052908160008201805461155590613ea2565b80601f016020809104026020016040519081016040528092919081815260200182805461158190613ea2565b80156115ce5780601f106115a3576101008083540402835291602001916115ce565b820191906000526020600020905b8154815290600101906020018083116115b157829003601f168201915b505050918352505060019182015460ff161515602091820152918352929092019101611522565b50505050905090565b600084815260066020908152604080832086845290915290206003015461010090046001600160a01b031633146116475760405162461bcd60e51b815260040161080790613f05565b6000848152600660209081526040808320868452909152902060030154600160a81b900460ff166116ac5760405162461bcd60e51b815260206004820152600f60248201526e437572736f206e6f2061637469766f60881b6044820152606401610807565b60005b87811015611789576117778989838181106116cc576116cc613e8c565b90506020020160208101906116e191906135c8565b8888848181106116f3576116f3613e8c565b90506020028101906117059190614083565b8080601f01602080910402602001604051908101604052809392919081815260200183838082843760009201919091525050604080516020601f8a018190048102820181019092528881528b93508a92509089908990819084018382808284376000920191909152506132a892505050565b8061178181613eec565b9150506116af565b505050505050505050565b606080600860008560c38111156117ad576117ad613fa9565b60c38111156117be576117be613fa9565b81526020019081526020016000206000848152602001908152602001600020600001600860008660c38111156117f6576117f6613fa9565b60c381111561180757611807613fa9565b8152602001908152602001600020600085815260200190815260200160002060010181805480602002602001604051908101604052809291908181526020016000905b8282101561189a578382906000526020600020906003020160405180606001604052908160008201548152602001600182015481526020016002820154815250508152602001906001019061184a565b5050505091508080546118ac90613ea2565b80601f01602080910402602001604051908101604052809291908181526020018280546118d890613ea2565b80156119255780601f106118fa57610100808354040283529160200191611925565b820191906000526020600020905b81548152906001019060200180831161190857829003601f168201915b50505050509050915091505b9250929050565b600082815260066020908152604080832084845290915290206003015461010090046001600160a01b031633146119815760405162461bcd60e51b815260040161080790613f05565b61198c8383836120a7565b6119a85760405162461bcd60e51b815260040161080790613f3c565b600082815260066020908152604080832084845290915290206003015461010090046001600160a01b03166119ef5760405162461bcd60e51b815260040161080790613f80565b6001600160a01b038316600090815260096020908152604080832080548251818502810185019093528083529192909190849084015b82821015611a755783829060005260206000209060030201604051806060016040529081600082015481526020016001820154815260200160028201548152505081526020019060010190611a25565b5050505090506000805b8251811015611c115784838281518110611a9b57611a9b613e8c565b602002602001015160000151148015611ad0575083838281518110611ac257611ac2613e8c565b602002602001015160200151145b15611bff57600191508260018451611ae89190613fbf565b81518110611af857611af8613e8c565b602002602001015160096000886001600160a01b03166001600160a01b031681526020019081526020016000206000018281548110611b3957611b39613e8c565b6000918252602080832084516003909302019182558381015160018301556040938401516002909201919091556001600160a01b03891682526009905220805480611b8657611b86613fd2565b600082815260208082206003600019949094019384020182815560018101839055600201919091559155604080516001600160a01b038916815291820187905281018590523360608201527f766692396ffc9fcb7f78a8c1ee872ffe80b92761161ce6857923429df295fd129060800160405180910390a15b80611c0981613eec565b915050611a7f565b5080611c555760405162461bcd60e51b8152602060048201526013602482015272437572736f206e6f20656e636f6e747261646f60681b6044820152606401610807565b5050505050565b60048181548110611c6c57600080fd5b9060005260206000209060020201600091509050806000018054611c8f90613ea2565b80601f0160208091040260200160405190810160405280929190818152602001828054611cbb90613ea2565b8015611d085780601f10611cdd57610100808354040283529160200191611d08565b820191906000526020600020905b815481529060010190602001808311611ceb57829003601f168201915b5050506001909301549192505060ff1682565b6000918252602082815260408084206001600160a01b0393909316845291905290205460ff1690565b600860209081526000928352604080842090915290825290206001810180546111b490613ea2565b6000611d7781612fb0565b6003546001600160a01b0316611d8e600082612fbd565b50611d9a60008461321e565b50600380546001600160a01b0319166001600160a01b0385811691821790925560408051928416835260208301919091527f2b4b2b4e35d8c42f3f16cf9559890fa1d5f9866cb35ff35ff451dfac633fb69591015b60405180910390a1505050565b600080516020614503833981519152611e1481612fb0565b60048a81548110611e2757611e27613e8c565b600091825260209091206001600290920201015460ff16611e805760405162461bcd60e51b815260206004820152601360248201527243617465676f726961206e6f2061637469766160681b6044820152606401610807565b6001600160a01b038316611ed65760405162461bcd60e51b815260206004820152601f60248201527f4164647265737320636572746966696361646f7220696e636f727265637461006044820152606401610807565b600060058b81548110611eeb57611eeb613e8c565b906000526020600020015490506040518060c001604052808b8b8080601f016020809104026020016040519081016040528093929190818152602001838380828437600092019190915250505090825250604080516020601f8c018190048102820181019092528a815291810191908b908b9081908401838280828437600092018290525093855250505060208083018a905260ff89166040808501919091526001600160a01b03891660608501528715156080909401939093528e82526006815282822085835290522081518190611fc4908261422e565b5060208201516001820190611fd9908261422e565b5060408201516002820155606082015160039091018054608084015160a0909401511515600160a81b0260ff60a81b196001600160a01b03909516610100026001600160a81b031990921660ff909416939093171792909216179055600580548c90811061204957612049613e8c565b6000918252602082200180549161205f83613eec565b91905055507f09f50f412ffe01b017e1c54edd2bab97ef34e3cfcfcdb2177a71bc55515e986b338c838d8d8d8d8d8d8d8d6040516114c89b9a999897969594939291906142ed565b600082815260066020908152604080832084845290915281206003015461010090046001600160a01b03166120ee5760405162461bcd60e51b815260040161080790613f80565b6001600160a01b038416600090815260096020908152604080832080548251818502810185019093528083529192909190849084015b828210156121745783829060005260206000209060030201604051806060016040529081600082015481526020016001820154815260200160028201548152505081526020019060010190612124565b50505050905060005b81518110156121f0578482828151811061219957612199613e8c565b6020026020010151600001511480156121ce5750838282815181106121c0576121c0613e8c565b602002602001015160200151145b156121de576001925050506121f7565b806121e881613eec565b91505061217d565b5060009150505b9392505050565b600082815260066020908152604080832084845290915281206003015461010090046001600160a01b03166122455760405162461bcd60e51b815260040161080790613f80565b6000600860008760c381111561225d5761225d613fa9565b60c381111561226e5761226e613fa9565b81526020019081526020016000206000868152602001908152602001600020600001805480602002602001604051908101604052809291908181526020016000905b8282101561230057838290600052602060002090600302016040518060600160405290816000820154815260200160018201548152602001600282015481525050815260200190600101906122b0565b50505050905060005b815181101561237c578482828151811061232557612325613e8c565b60200260200101516000015114801561235a57508382828151811061234c5761234c613e8c565b602002602001015160200151145b1561236a57600192505050612383565b8061237481613eec565b915050612309565b5060009150505b949350505050565b6001600160a01b0381166000908152600960209081526040808320805482518185028101850190935280835260609485949293600185019390928592909184015b8282101561241c57838290600052602060002090600302016040518060600160405290816000820154815260200160018201548152602001600282015481525050815260200190600101906123cc565b50505050915080805461242e90613ea2565b80601f016020809104026020016040519081016040528092919081815260200182805461245a90613ea2565b80156124a75780601f1061247c576101008083540402835291602001916124a7565b820191906000526020600020905b81548152906001019060200180831161248a57829003601f168201915b5050505050905091509150915091565b6000805160206145038339815191526124cf81612fb0565b60045485106125165760405162461bcd60e51b815260206004820152601360248201527243617465676f726961206e6f2065786973746560681b6044820152606401610807565b6040805160606020601f87018190040282018101835291810185815260009282919088908890819085018382808284376000920191909152505050908252508415156020909101526004805491925082918890811061257757612577613e8c565b600091825260209091208251600290920201908190612596908261422e565b50602091909101516001909101805460ff19169115159190911790556040517ff5901e1c3a9385b82b715c296eaaa24afb0e05c27b8b9e4fc7c55c51af596170906125ea9033908990899089908990614365565b60405180910390a1505050505050565b6002602052600090815260409020805460018201805491929161261c90613ea2565b80601f016020809104026020016040519081016040528092919081815260200182805461264890613ea2565b80156126955780601f1061266a57610100808354040283529160200191612695565b820191906000526020600020905b81548152906001019060200180831161267857829003601f168201915b5050505050905082565b6000828152602081905260409020600101546126ba81612fb0565b6111598383612fbd565b60066020908152600092835260408084209091529082529020805481906126ea90613ea2565b80601f016020809104026020016040519081016040528092919081815260200182805461271690613ea2565b80156127635780601f1061273857610100808354040283529160200191612763565b820191906000526020600020905b81548152906001019060200180831161274657829003601f168201915b50505050509080600101805461277890613ea2565b80601f01602080910402602001604051908101604052809291908181526020018280546127a490613ea2565b80156127f15780601f106127c6576101008083540402835291602001916127f1565b820191906000526020600020905b8154815290600101906020018083116127d457829003601f168201915b50505050600283015460039093015491929160ff808216925061010082046001600160a01b031691600160a81b90041686565b6040805160c08101825260608082526020820181905260009282018390528181018390526080820183905260a08201929092526004848154811061286a5761286a613e8c565b6000918252602080832087845260068252604080852088865290925292206002909102909101805490919082906128a090613ea2565b80601f01602080910402602001604051908101604052809291908181526020018280546128cc90613ea2565b80156129195780601f106128ee57610100808354040283529160200191612919565b820191906000526020600020905b8154815290600101906020018083116128fc57829003601f168201915b50505050509150806040518060c001604052908160008201805461293c90613ea2565b80601f016020809104026020016040519081016040528092919081815260200182805461296890613ea2565b80156129b55780601f1061298a576101008083540402835291602001916129b5565b820191906000526020600020905b81548152906001019060200180831161299857829003601f168201915b505050505081526020016001820180546129ce90613ea2565b80601f01602080910402602001604051908101604052809291908181526020018280546129fa90613ea2565b8015612a475780601f10612a1c57610100808354040283529160200191612a47565b820191906000526020600020905b815481529060010190602001808311612a2a57829003601f168201915b50505091835250506002820154602082015260039091015460ff808216604084015261010082046001600160a01b03166060840152600160a81b9091041615156080909101529196919550909350505050565b60008060005b600554811015612ae75760058181548110612abd57612abd613e8c565b906000526020600020015482612ad391906143a1565b915080612adf81613eec565b915050612aa0565b50919050565b6000612af881612fb0565b612b1060008051602061450383398151915284611d1b565b612b4e5760405162461bcd60e51b815260206004820152600f60248201526e41646d696e206e6f2065786973746560881b6044820152606401610807565b600060026000856001600160a01b03166001600160a01b0316815260200190815260200160002060405180604001604052908160008201548152602001600182018054612b9a90613ea2565b80601f0160208091040260200160405190810160405280929190818152602001828054612bc690613ea2565b8015612c135780601f10612be857610100808354040283529160200191612c13565b820191906000526020600020905b815481529060010190602001808311612bf657829003601f168201915b50505091909252505081516001600160a01b038616600090815260026020908152604090912091825583015192935060010191612c5191508261422e565b50826001826000015181548110612c6a57612c6a613e8c565b9060005260206000200160006101000a8154816001600160a01b0302191690836001600160a01b03160217905550612cb060008051602061450383398151915285612fbd565b50612cc96000805160206145038339815191528461321e565b50604080516001600160a01b038087168252851660208201527f6ad0f817caf245a6d88f5fef3a76fc0678c819cf6a9a27e2666df5a8d8552beb9101610dbe565b600080516020614503833981519152612d2281612fb0565b600480546040805160606020601f8801819004028201810183529181018681529293929091829190889088908190850183828082843760009201829052509385525050600160209384018190528554908101865594825250208151919260020201908190612d90908261422e565b50602091909101516001918201805460ff191691151591909117905560058054808301825560009182527f036b6384b5eca791c62761152d0c79bb0604c104a5fb6f4eb0703f3154bb3db001556040517ff5901e1c3a9385b82b715c296eaaa24afb0e05c27b8b9e4fc7c55c51af59617091610dbe913391859189918991614365565b6000612e1e81612fb0565b612e3660008051602061450383398151915284611d1b565b15612e835760405162461bcd60e51b815260206004820152601e60248201527f4375656e746120796120706f73656520726f6c2041444d494e5f524f4c4500006044820152606401610807565b6001600160a01b038316612ee55760405162461bcd60e51b815260206004820152602360248201527f4375656e74612061646d696e206e6f207075656465207365722061646472657360448201526207320360ec1b6064820152608401610807565b6001600160a01b0383166000908152600260205260409020600101612f0a838261422e565b50600180546001600160a01b03851660008181526002602052604081208390558284018455929092527fb10e2d527612073b26eecdfd717e6a320cf44b4afac2b0732d9fcbe2b7fa0cf60180546001600160a01b0319169091179055612f7e6000805160206145038339815191528461321e565b507f0f2484d4ed3d6191c79a12f2340ff9483955231ba51001ea98c12d85846453658383604051611def929190614044565b612fba813361340c565b50565b6000612fc98383611d1b565b15613028576000838152602081815260408083206001600160a01b0386168085529252808320805460ff1916905551339286917ff6391f5c32d9c69d2a47ea670b442974b53935d1edc7fd64eb21e047a839171b9190a45060016107b8565b5060006107b8565b61303c868685856121fe565b610b6257600860008760c381111561305657613056613fa9565b60c381111561306757613067613fa9565b815260208082019290925260409081016000908120888252835281812082516060810184528781528085018781526007548286019081528354600181810186559486529487902092516003909502909201938455519183019190915551600290910155516130d7918691016143b4565b60405160208183030381529060405280519060200120600860008860c381111561310357613103613fa9565b60c381111561311457613114613fa9565b8152602001908152602001600020600087815260200190815260200160002060010160405160200161314691906143d0565b60405160208183030381529060405280519060200120146131b95783600860008860c381111561317857613178613fa9565b60c381111561318957613189613fa9565b8152602001908152602001600020600087815260200190815260200160002060010190816131b7919061422e565b505b6007547f6ed637a8263640b91a02e1fe0d7527934daff18620ff2560309b86d0b91244c187878787873342896040516131f9989796959493929190614446565b60405180910390a26007805490600061321183613eec565b9190505550505050505050565b600061322a8383611d1b565b613028576000838152602081815260408083206001600160a01b03861684529091529020805460ff191660011790556132603390565b6001600160a01b0316826001600160a01b0316847f2f8788117e7eff1d82e926ec794901d17c78024a50270940304540a733656f0d60405160405180910390a45060016107b8565b6132b38584846120a7565b611c55576001600160a01b0385166000908152600960209081526040808320815160608101835287815280840187815260075482850190815283546001818101865594885296869020925160039097029092019586555191850191909155516002909301929092559051613329918691016143b4565b60408051601f1981840301815282825280516020918201206001600160a01b0389166000908152600983529290922091926133689260010191016143d0565b60405160208183030381529060405280519060200120146133aa576001600160a01b03851660009081526009602052604090206001016133a8858261422e565b505b6007547ff57a6a28124890c50d452731328864d2e42aec3cf5a37f72bc9791822283bbb3868686863342886040516133e897969594939291906144b4565b60405180910390a26007805490600061340083613eec565b91905055505050505050565b6134168282611d1b565b6134455760405163e2517d3f60e01b81526001600160a01b038216600482015260248101839052604401610807565b5050565b60005b8381101561346457818101518382015260200161344c565b50506000910152565b60008151808452613485816020860160208601613449565b601f01601f19169290920160200192915050565b604080825283519082018190526000906020906060840190828701845b828110156134db5781516001600160a01b0316845292840192908401906001016134b6565b50505083810382850152845180825282820190600581901b8301840187850160005b8381101561352b57601f1986840301855261351983835161346d565b948701949250908601906001016134fd565b50909998505050505050505050565b60006020828403121561354c57600080fd5b81356001600160e01b0319811681146121f757600080fd5b803560c4811061357357600080fd5b919050565b6000806000806080858703121561358e57600080fd5b61359785613564565b966020860135965060408601359560600135945092505050565b80356001600160a01b038116811461357357600080fd5b6000602082840312156135da57600080fd5b6121f7826135b1565b60008083601f8401126135f557600080fd5b5081356001600160401b0381111561360c57600080fd5b6020830191508360208260051b850101111561193157600080fd5b60008083601f84011261363957600080fd5b5081356001600160401b0381111561365057600080fd5b60208301915083602082850101111561193157600080fd5b60008060008060008060008060008060c08b8d03121561368757600080fd5b8a356001600160401b038082111561369e57600080fd5b6136aa8e838f016135e3565b909c509a5060208d01359150808211156136c357600080fd5b6136cf8e838f016135e3565b909a50985060408d01359150808211156136e857600080fd5b6136f48e838f016135e3565b909850965060608d0135955060808d0135945060a08d013591508082111561371b57600080fd5b506137288d828e01613627565b915080935050809150509295989b9194979a5092959850565b60006020828403121561375357600080fd5b5035919050565b60008060006040848603121561376f57600080fd5b613778846135b1565b925060208401356001600160401b0381111561379357600080fd5b61379f86828701613627565b9497909650939450505050565b600080604083850312156137bf57600080fd5b823591506137cf602084016135b1565b90509250929050565b6020815260006121f7602083018461346d565b6020808252825182820181905260009190848201906040850190845b8181101561382357835183529284019291840191600101613807565b50909695505050505050565b803560ff8116811461357357600080fd5b8035801515811461357357600080fd5b6000806000806000806000806000806101008b8d03121561387057600080fd5b8a35995060208b0135985060408b01356001600160401b038082111561389557600080fd5b6138a18e838f01613627565b909a50985060608d01359150808211156138ba57600080fd5b506138c78d828e01613627565b90975095505060808b013593506138e060a08c0161382f565b92506138ee60c08c016135b1565b91506138fc60e08c01613840565b90509295989b9194979a5092959850565b60006020808301818452808551808352604092508286019150828160051b87010184880160005b8381101561397757888303603f19018552815180518785526139588886018261346d565b9189015115159489019490945294870194925090860190600101613934565b509098975050505050505050565b60008060008060008060008060a0898b0312156139a157600080fd5b88356001600160401b03808211156139b857600080fd5b6139c48c838d016135e3565b909a50985060208b01359150808211156139dd57600080fd5b6139e98c838d016135e3565b909850965060408b0135955060608b0135945060808b0135915080821115613a1057600080fd5b50613a1d8b828c01613627565b999c989b5096995094979396929594505050565b60008060408385031215613a4457600080fd5b613a4d83613564565b946020939093013593505050565b6040808252835182820181905260009190606090818501906020808901865b83811015613aa7578151805186528381015184870152870151878601529385019390820190600101613a7a565b50508683039087015250613abb818761346d565b979650505050505050565b600080600060608486031215613adb57600080fd5b613ae4846135b1565b95602085013595506040909401359392505050565b604081526000613b0c604083018561346d565b905082151560208301529392505050565b600080600080600080600080600060e08a8c031215613b3b57600080fd5b8935985060208a01356001600160401b0380821115613b5957600080fd5b613b658d838e01613627565b909a50985060408c0135915080821115613b7e57600080fd5b50613b8b8c828d01613627565b90975095505060608a01359350613ba460808b0161382f565b9250613bb260a08b016135b1565b9150613bc060c08b01613840565b90509295985092959850929598565b60008060008060608587031215613be557600080fd5b8435935060208501356001600160401b03811115613c0257600080fd5b613c0e87828801613627565b9094509250613c21905060408601613840565b905092959194509250565b828152604060208201526000612383604083018461346d565b60008060408385031215613c5857600080fd5b50508035926020909101359150565b60c081526000613c7a60c083018961346d565b8281036020840152613c8c818961346d565b6040840197909752505060ff9390931660608401526001600160a01b03919091166080830152151560a09091015292915050565b604081526000613cd3604083018561346d565b8281036020840152835160c08252613cee60c083018261346d565b905060208501518282036020840152613d07828261346d565b6040878101519085015260608088015160ff16908501526080808801516001600160a01b03169085015260a0968701511515969093019590955250949350505050565b60008060408385031215613d5d57600080fd5b613d66836135b1565b91506137cf602084016135b1565b60008060208385031215613d8757600080fd5b82356001600160401b03811115613d9d57600080fd5b613da985828601613627565b90969095509350505050565b634e487b7160e01b600052604160045260246000fd5b60008060408385031215613dde57600080fd5b613de7836135b1565b915060208301356001600160401b0380821115613e0357600080fd5b818501915085601f830112613e1757600080fd5b813581811115613e2957613e29613db5565b604051601f8201601f19908116603f01168101908382118183101715613e5157613e51613db5565b81604052828152886020848701011115613e6a57600080fd5b8260208601602083013760006020848301015280955050505050509250929050565b634e487b7160e01b600052603260045260246000fd5b600181811c90821680613eb657607f821691505b602082108103612ae757634e487b7160e01b600052602260045260246000fd5b634e487b7160e01b600052601160045260246000fd5b600060018201613efe57613efe613ed6565b5060010190565b6020808252601d908201527f4e6f206175746f72697a61646f2070617261206573746520637572736f000000604082015260600190565b60208082526024908201527f5573756172696f206e6f20636572746966696361646f20656e206573746520636040820152637572736f60e01b606082015260800190565b6020808252600f908201526e437572736f206e6f2065786973746560881b604082015260600190565b634e487b7160e01b600052602160045260246000fd5b818103818111156107b8576107b8613ed6565b634e487b7160e01b600052603160045260246000fd5b60c4811061400657634e487b7160e01b600052602160045260246000fd5b9052565b60a081016140188288613fe8565b6020820195909552604081019390935260608301919091526001600160a01b0316608090910152919050565b6001600160a01b03831681526040602082018190526000906123839083018461346d565b60006020828403121561407a57600080fd5b6121f782613564565b6000808335601e1984360301811261409a57600080fd5b8301803591506001600160401b038211156140b457600080fd5b60200191503681900382131561193157600080fd5b601f82111561119257600081815260208120601f850160051c810160208610156140f05750805b601f850160051c820191505b81811015610b62578281556001016140fc565b6001600160401b0383111561412657614126613db5565b61413a836141348354613ea2565b836140c9565b6000601f84116001811461416e57600085156141565750838201355b600019600387901b1c1916600186901b178355611c55565b600083815260209020601f19861690835b8281101561419f578685013582556020948501946001909201910161417f565b50868210156141bc5760001960f88860031b161c19848701351681555b505060018560011b0183555050505050565b81835281816020850137506000828201602090810191909152601f909101601f19169091010190565b6001600160a01b038516815260606020820181905260009061421b9083018661346d565b8281036040840152613abb8185876141ce565b81516001600160401b0381111561424757614247613db5565b61425b816142558454613ea2565b846140c9565b602080601f83116001811461429057600084156142785750858301515b600019600386901b1c1916600185901b178555610b62565b600085815260208120601f198616915b828110156142bf578886015182559484019460019091019084016142a0565b50858210156142dd5787850151600019600388901b60f8161c191681555b5050505050600190811b01905550565b600061012060018060a01b03808f1684528d60208501528c604085015281606085015261431d8285018c8e6141ce565b91508382036080850152614332828a8c6141ce565b60a085019890985260ff9690961660c084015250509190921660e082015290151561010090910152979650505050505050565b60018060a01b038616815284602082015260806040820152600061438d6080830185876141ce565b905082151560608301529695505050505050565b808201808211156107b8576107b8613ed6565b600082516143c6818460208701613449565b9190910192915050565b60008083546143de81613ea2565b600182811680156143f6576001811461440b5761443a565b60ff198416875282151583028701945061443a565b8760005260208060002060005b858110156144315781548a820152908401908201614418565b50505082870194505b50929695505050505050565b6000610100614455838c613fe8565b89602084015280604084015261446d8184018a61346d565b60608401899052608084018890526001600160a01b03871660a085015260c0840186905283810360e085015290506144a5818561346d565b9b9a5050505050505050505050565b600060018060a01b03808a16835260e060208401526144d660e084018a61346d565b88604085015287606085015281871660808501528560a085015283810360c08501526144a5818661346d56fea49807205ce4d355092ef5a8a18f56e8913cf4a201fbe287825b095693c21775a26469706673582212200322f8818010bd8bb5e8dc08c14857ce2d4860ef8bb692d8f6b0b0755aedf91064736f6c63430008140033",
  "devdoc": {
    "errors": {
      "AccessControlBadConfirmation()": [
        {
          "details": "The caller of a function is not the expected one. NOTE: Don't confuse with {AccessControlUnauthorizedAccount}."
        }
      ],
      "AccessControlUnauthorizedAccount(address,bytes32)": [
        {
          "details": "The `account` is missing a role."
        }
      ]
    },
    "events": {
      "RoleAdminChanged(bytes32,bytes32,bytes32)": {
        "details": "Emitted when `newAdminRole` is set as ``role``'s admin role, replacing `previousAdminRole` `DEFAULT_ADMIN_ROLE` is the starting admin for all roles, despite {RoleAdminChanged} not being emitted signaling this."
      },
      "RoleGranted(bytes32,address,address)": {
        "details": "Emitted when `account` is granted `role`. `sender` is the account that originated the contract call. This account bears the admin role (for the granted role). Expected in cases where the role was granted using the internal {AccessControl-_grantRole}."
      },
      "RoleRevoked(bytes32,address,address)": {
        "details": "Emitted when `account` is revoked `role`. `sender` is the account that originated the contract call:   - if using `revokeRole`, it is the admin role bearer   - if using `renounceRole`, it is the role bearer (i.e. `account`)"
      }
    },
    "kind": "dev",
    "methods": {
      "getRoleAdmin(bytes32)": {
        "details": "Returns the admin role that controls `role`. See {grantRole} and {revokeRole}. To change a role's admin, use {_setRoleAdmin}."
      },
      "grantRole(bytes32,address)": {
        "details": "Grants `role` to `account`. If `account` had not been already granted `role`, emits a {RoleGranted} event. Requirements: - the caller must have ``role``'s admin role. May emit a {RoleGranted} event."
      },
      "hasRole(bytes32,address)": {
        "details": "Returns `true` if `account` has been granted `role`."
      },
      "renounceRole(bytes32,address)": {
        "details": "Revokes `role` from the calling account. Roles are often managed via {grantRole} and {revokeRole}: this function's purpose is to provide a mechanism for accounts to lose their privileges if they are compromised (such as when a trusted device is misplaced). If the calling account had been revoked `role`, emits a {RoleRevoked} event. Requirements: - the caller must be `callerConfirmation`. May emit a {RoleRevoked} event."
      },
      "revokeRole(bytes32,address)": {
        "details": "Revokes `role` from `account`. If `account` had been granted `role`, emits a {RoleRevoked} event. Requirements: - the caller must have ``role``'s admin role. May emit a {RoleRevoked} event."
      },
      "supportsInterface(bytes4)": {
        "details": "See {IERC165-supportsInterface}."
      }
    },
    "version": 1
  },
  "userdoc": {
    "kind": "user",
    "methods": {},
    "version": 1
  },
  "storageLayout": {
    "storage": [
      {
        "astId": 26,
        "contract": "contracts/Certificados.sol:Certificados",
        "label": "_roles",
        "offset": 0,
        "slot": "0",
        "type": "t_mapping(t_bytes32,t_struct(RoleData)21_storage)"
      },
      {
        "astId": 458,
        "contract": "contracts/Certificados.sol:Certificados",
        "label": "arregloAdmins",
        "offset": 0,
        "slot": "1",
        "type": "t_array(t_address)dyn_storage"
      },
      {
        "astId": 463,
        "contract": "contracts/Certificados.sol:Certificados",
        "label": "mapAdmin",
        "offset": 0,
        "slot": "2",
        "type": "t_mapping(t_address,t_struct(EstructuraAdmin)455_storage)"
      },
      {
        "astId": 502,
        "contract": "contracts/Certificados.sol:Certificados",
        "label": "superAdmin",
        "offset": 0,
        "slot": "3",
        "type": "t_address"
      },
      {
        "astId": 1805,
        "contract": "contracts/Certificados.sol:Certificados",
        "label": "arregloCategorias",
        "offset": 0,
        "slot": "4",
        "type": "t_array(t_struct(EstructuraCategoria)1801_storage)dyn_storage"
      },
      {
        "astId": 1928,
        "contract": "contracts/Certificados.sol:Certificados",
        "label": "arregloCursosPorCategoria",
        "offset": 0,
        "slot": "5",
        "type": "t_array(t_uint256)dyn_storage"
      },
      {
        "astId": 1935,
        "contract": "contracts/Certificados.sol:Certificados",
        "label": "mapCurso",
        "offset": 0,
        "slot": "6",
        "type": "t_mapping(t_uint256,t_mapping(t_uint256,t_struct(EstructuraCurso)1925_storage))"
      },
      {
        "astId": 917,
        "contract": "contracts/Certificados.sol:Certificados",
        "label": "certificadoContador",
        "offset": 0,
        "slot": "7",
        "type": "t_uint256"
      },
      {
        "astId": 939,
        "contract": "contracts/Certificados.sol:Certificados",
        "label": "mapUsuario",
        "offset": 0,
        "slot": "8",
        "type": "t_mapping(t_enum(Pais)2352,t_mapping(t_uint256,t_struct(EstructuraUsuario)931_storage))"
      },
      {
        "astId": 1385,
        "contract": "contracts/Certificados.sol:Certificados",
        "label": "mapUsuarioAddress",
        "offset": 0,
        "slot": "9",
        "type": "t_mapping(t_address,t_struct(EstructuraUsuario)931_storage)"
      }
    ],
    "types": {
      "t_address": {
        "encoding": "inplace",
        "label": "address",
        "numberOfBytes": "20"
      },
      "t_array(t_address)dyn_storage": {
        "base": "t_address",
        "encoding": "dynamic_array",
        "label": "address[]",
        "numberOfBytes": "32"
      },
      "t_array(t_struct(EstructuraCategoria)1801_storage)dyn_storage": {
        "base": "t_struct(EstructuraCategoria)1801_storage",
        "encoding": "dynamic_array",
        "label": "struct Cursos.EstructuraCategoria[]",
        "numberOfBytes": "32"
      },
      "t_array(t_struct(EstructuraCursoUsuario)924_storage)dyn_storage": {
        "base": "t_struct(EstructuraCursoUsuario)924_storage",
        "encoding": "dynamic_array",
        "label": "struct Certificados.EstructuraCursoUsuario[]",
        "numberOfBytes": "32"
      },
      "t_array(t_uint256)dyn_storage": {
        "base": "t_uint256",
        "encoding": "dynamic_array",
        "label": "uint256[]",
        "numberOfBytes": "32"
      },
      "t_bool": {
        "encoding": "inplace",
        "label": "bool",
        "numberOfBytes": "1"
      },
      "t_bytes32": {
        "encoding": "inplace",
        "label": "bytes32",
        "numberOfBytes": "32"
      },
      "t_enum(Pais)2352": {
        "encoding": "inplace",
        "label": "enum Pais",
        "numberOfBytes": "1"
      },
      "t_mapping(t_address,t_bool)": {
        "encoding": "mapping",
        "key": "t_address",
        "label": "mapping(address => bool)",
        "numberOfBytes": "32",
        "value": "t_bool"
      },
      "t_mapping(t_address,t_struct(EstructuraAdmin)455_storage)": {
        "encoding": "mapping",
        "key": "t_address",
        "label": "mapping(address => struct Admin.EstructuraAdmin)",
        "numberOfBytes": "32",
        "value": "t_struct(EstructuraAdmin)455_storage"
      },
      "t_mapping(t_address,t_struct(EstructuraUsuario)931_storage)": {
        "encoding": "mapping",
        "key": "t_address",
        "label": "mapping(address => struct Certificados.EstructuraUsuario)",
        "numberOfBytes": "32",
        "value": "t_struct(EstructuraUsuario)931_storage"
      },
      "t_mapping(t_bytes32,t_struct(RoleData)21_storage)": {
        "encoding": "mapping",
        "key": "t_bytes32",
        "label": "mapping(bytes32 => struct AccessControl.RoleData)",
        "numberOfBytes": "32",
        "value": "t_struct(RoleData)21_storage"
      },
      "t_mapping(t_enum(Pais)2352,t_mapping(t_uint256,t_struct(EstructuraUsuario)931_storage))": {
        "encoding": "mapping",
        "key": "t_enum(Pais)2352",
        "label": "mapping(enum Pais => mapping(uint256 => struct Certificados.EstructuraUsuario))",
        "numberOfBytes": "32",
        "value": "t_mapping(t_uint256,t_struct(EstructuraUsuario)931_storage)"
      },
      "t_mapping(t_uint256,t_mapping(t_uint256,t_struct(EstructuraCurso)1925_storage))": {
        "encoding": "mapping",
        "key": "t_uint256",
        "label": "mapping(uint256 => mapping(uint256 => struct Cursos.EstructuraCurso))",
        "numberOfBytes": "32",
        "value": "t_mapping(t_uint256,t_struct(EstructuraCurso)1925_storage)"
      },
      "t_mapping(t_uint256,t_struct(EstructuraCurso)1925_storage)": {
        "encoding": "mapping",
        "key": "t_uint256",
        "label": "mapping(uint256 => struct Cursos.EstructuraCurso)",
        "numberOfBytes": "32",
        "value": "t_struct(EstructuraCurso)1925_storage"
      },
      "t_mapping(t_uint256,t_struct(EstructuraUsuario)931_storage)": {
        "encoding": "mapping",
        "key": "t_uint256",
        "label": "mapping(uint256 => struct Certificados.EstructuraUsuario)",
        "numberOfBytes": "32",
        "value": "t_struct(EstructuraUsuario)931_storage"
      },
      "t_string_storage": {
        "encoding": "bytes",
        "label": "string",
        "numberOfBytes": "32"
      },
      "t_struct(EstructuraAdmin)455_storage": {
        "encoding": "inplace",
        "label": "struct Admin.EstructuraAdmin",
        "members": [
          {
            "astId": 452,
            "contract": "contracts/Certificados.sol:Certificados",
            "label": "indice",
            "offset": 0,
            "slot": "0",
            "type": "t_uint256"
          },
          {
            "astId": 454,
            "contract": "contracts/Certificados.sol:Certificados",
            "label": "nombre",
            "offset": 0,
            "slot": "1",
            "type": "t_string_storage"
          }
        ],
        "numberOfBytes": "64"
      },
      "t_struct(EstructuraCategoria)1801_storage": {
        "encoding": "inplace",
        "label": "struct Cursos.EstructuraCategoria",
        "members": [
          {
            "astId": 1798,
            "contract": "contracts/Certificados.sol:Certificados",
            "label": "nombre",
            "offset": 0,
            "slot": "0",
            "type": "t_string_storage"
          },
          {
            "astId": 1800,
            "contract": "contracts/Certificados.sol:Certificados",
            "label": "activa",
            "offset": 0,
            "slot": "1",
            "type": "t_bool"
          }
        ],
        "numberOfBytes": "64"
      },
      "t_struct(EstructuraCurso)1925_storage": {
        "encoding": "inplace",
        "label": "struct Cursos.EstructuraCurso",
        "members": [
          {
            "astId": 1914,
            "contract": "contracts/Certificados.sol:Certificados",
            "label": "nombreCurso",
            "offset": 0,
            "slot": "0",
            "type": "t_string_storage"
          },
          {
            "astId": 1916,
            "contract": "contracts/Certificados.sol:Certificados",
            "label": "descripcion",
            "offset": 0,
            "slot": "1",
            "type": "t_string_storage"
          },
          {
            "astId": 1918,
            "contract": "contracts/Certificados.sol:Certificados",
            "label": "duracion",
            "offset": 0,
            "slot": "2",
            "type": "t_uint256"
          },
          {
            "astId": 1920,
            "contract": "contracts/Certificados.sol:Certificados",
            "label": "tipoCertificado",
            "offset": 0,
            "slot": "3",
            "type": "t_uint8"
          },
          {
            "astId": 1922,
            "contract": "contracts/Certificados.sol:Certificados",
            "label": "certificador",
            "offset": 1,
            "slot": "3",
            "type": "t_address"
          },
          {
            "astId": 1924,
            "contract": "contracts/Certificados.sol:Certificados",
            "label": "activo",
            "offset": 21,
            "slot": "3",
            "type": "t_bool"
          }
        ],
        "numberOfBytes": "128"
      },
      "t_struct(EstructuraCursoUsuario)924_storage": {
        "encoding": "inplace",
        "label": "struct Certificados.EstructuraCursoUsuario",
        "members": [
          {
            "astId": 919,
            "contract": "contracts/Certificados.sol:Certificados",
            "label": "categoria",
            "offset": 0,
            "slot": "0",
            "type": "t_uint256"
          },
          {
            "astId": 921,
            "contract": "contracts/Certificados.sol:Certificados",
            "label": "curso",
            "offset": 0,
            "slot": "1",
            "type": "t_uint256"
          },
          {
            "astId": 923,
            "contract": "contracts/Certificados.sol:Certificados",
            "label": "idCertificado",
            "offset": 0,
            "slot": "2",
            "type": "t_uint256"
          }
        ],
        "numberOfBytes": "96"
      },
      "t_struct(EstructuraUsuario)931_storage": {
        "encoding": "inplace",
        "label": "struct Certificados.EstructuraUsuario",
        "members": [
          {
            "astId": 928,
            "contract": "contracts/Certificados.sol:Certificados",
            "label": "arregloCursosUsuario",
            "offset": 0,
            "slot": "0",
            "type": "t_array(t_struct(EstructuraCursoUsuario)924_storage)dyn_storage"
          },
          {
            "astId": 930,
            "contract": "contracts/Certificados.sol:Certificados",
            "label": "nombre",
            "offset": 0,
            "slot": "1",
            "type": "t_string_storage"
          }
        ],
        "numberOfBytes": "64"
      },
      "t_struct(RoleData)21_storage": {
        "encoding": "inplace",
        "label": "struct AccessControl.RoleData",
        "members": [
          {
            "astId": 18,
            "contract": "contracts/Certificados.sol:Certificados",
            "label": "hasRole",
            "offset": 0,
            "slot": "0",
            "type": "t_mapping(t_address,t_bool)"
          },
          {
            "astId": 20,
            "contract": "contracts/Certificados.sol:Certificados",
            "label": "adminRole",
            "offset": 0,
            "slot": "1",
            "type": "t_bytes32"
          }
        ],
        "numberOfBytes": "64"
      },
      "t_uint256": {
        "encoding": "inplace",
        "label": "uint256",
        "numberOfBytes": "32"
      },
      "t_uint8": {
        "encoding": "inplace",
        "label": "uint8",
        "numberOfBytes": "1"
      }
    }
  }
}