{
  "address": "0xf4Ae7733ECB4389C869086a9D0e8e839d37519Ad",
  "abi": [
    {
      "inputs": [],
      "name": "AccessControlBadConfirmation",
      "type": "error"
    },
    {
      "inputs": [
        {
          "internalType": "address",
          "name": "account",
          "type": "address"
        },
        {
          "internalType": "bytes32",
          "name": "neededRole",
          "type": "bytes32"
        }
      ],
      "name": "AccessControlUnauthorizedAccount",
      "type": "error"
    },
    {
      "anonymous": false,
      "inputs": [
        {
          "indexed": false,
          "internalType": "address",
          "name": "cuenta",
          "type": "address"
        },
        {
          "indexed": false,
          "internalType": "string",
          "name": "nombre",
          "type": "string"
        }
      ],
      "name": "LogAdminCreado",
      "type": "event"
    },
    {
      "anonymous": false,
      "inputs": [
        {
          "indexed": false,
          "internalType": "address",
          "name": "cuentaAnterior",
          "type": "address"
        },
        {
          "indexed": false,
          "internalType": "address",
          "name": "cuentaNueva",
          "type": "address"
        }
      ],
      "name": "LogAdminCuentaModificada",
      "type": "event"
    },
    {
      "anonymous": false,
      "inputs": [
        {
          "indexed": false,
          "internalType": "address",
          "name": "cuenta",
          "type": "address"
        },
        {
          "indexed": false,
          "internalType": "string",
          "name": "nombre",
          "type": "string"
        }
      ],
      "name": "LogAdminEliminado",
      "type": "event"
    },
    {
      "anonymous": false,
      "inputs": [
        {
          "indexed": false,
          "internalType": "address",
          "name": "cuenta",
          "type": "address"
        },
        {
          "indexed": false,
          "internalType": "string",
          "name": "nombreAnterior",
          "type": "string"
        },
        {
          "indexed": false,
          "internalType": "string",
          "name": "nombreNuevo",
          "type": "string"
        }
      ],
      "name": "LogAdminNombreModificado",
      "type": "event"
    },
    {
      "anonymous": false,
      "inputs": [
        {
          "indexed": false,
          "internalType": "address",
          "name": "admin",
          "type": "address"
        },
        {
          "indexed": false,
          "internalType": "uint256",
          "name": "categoria",
          "type": "uint256"
        },
        {
          "indexed": false,
          "internalType": "string",
          "name": "nombre",
          "type": "string"
        },
        {
          "indexed": false,
          "internalType": "bool",
          "name": "estado",
          "type": "bool"
        }
      ],
      "name": "LogCategoriaCreada",
      "type": "event"
    },
    {
      "anonymous": false,
      "inputs": [
        {
          "indexed": false,
          "internalType": "enum Pais",
          "name": "pais",
          "type": "uint8"
        },
        {
          "indexed": false,
          "internalType": "uint256",
          "name": "usuario",
          "type": "uint256"
        },
        {
          "indexed": false,
          "internalType": "string",
          "name": "nombre",
          "type": "string"
        },
        {
          "indexed": false,
          "internalType": "uint256",
          "name": "categoria",
          "type": "uint256"
        },
        {
          "indexed": false,
          "internalType": "uint256",
          "name": "curso",
          "type": "uint256"
        },
        {
          "indexed": false,
          "internalType": "address",
          "name": "certificador",
          "type": "address"
        },
        {
          "indexed": true,
          "internalType": "uint256",
          "name": "idCertificado",
          "type": "uint256"
        },
        {
          "indexed": false,
          "internalType": "uint256",
          "name": "fecha",
          "type": "uint256"
        },
        {
          "indexed": false,
          "internalType": "string",
          "name": "nombreCertificador",
          "type": "string"
        }
      ],
      "name": "LogCertificado",
      "type": "event"
    },
    {
      "anonymous": false,
      "inputs": [
        {
          "indexed": false,
          "internalType": "address",
          "name": "usuario",
          "type": "address"
        },
        {
          "indexed": false,
          "internalType": "string",
          "name": "nombre",
          "type": "string"
        },
        {
          "indexed": false,
          "internalType": "uint256",
          "name": "categoria",
          "type": "uint256"
        },
        {
          "indexed": false,
          "internalType": "uint256",
          "name": "curso",
          "type": "uint256"
        },
        {
          "indexed": false,
          "internalType": "address",
          "name": "certificador",
          "type": "address"
        },
        {
          "indexed": true,
          "internalType": "uint256",
          "name": "idCertificado",
          "type": "uint256"
        },
        {
          "indexed": false,
          "internalType": "uint256",
          "name": "fecha",
          "type": "uint256"
        },
        {
          "indexed": false,
          "internalType": "string",
          "name": "nombreCertificador",
          "type": "string"
        }
      ],
      "name": "LogCertificadoAddress",
      "type": "event"
    },
    {
      "anonymous": false,
      "inputs": [
        {
          "indexed": false,
          "internalType": "enum Pais",
          "name": "pais",
          "type": "uint8"
        },
        {
          "indexed": false,
          "internalType": "uint256",
          "name": "usuario",
          "type": "uint256"
        },
        {
          "indexed": false,
          "internalType": "uint256",
          "name": "categoria",
          "type": "uint256"
        },
        {
          "indexed": false,
          "internalType": "uint256",
          "name": "curso",
          "type": "uint256"
        },
        {
          "indexed": false,
          "internalType": "address",
          "name": "certificador",
          "type": "address"
        }
      ],
      "name": "LogCertificadoEliminado",
      "type": "event"
    },
    {
      "anonymous": false,
      "inputs": [
        {
          "indexed": false,
          "internalType": "address",
          "name": "usuario",
          "type": "address"
        },
        {
          "indexed": false,
          "internalType": "uint256",
          "name": "categoria",
          "type": "uint256"
        },
        {
          "indexed": false,
          "internalType": "uint256",
          "name": "curso",
          "type": "uint256"
        },
        {
          "indexed": false,
          "internalType": "address",
          "name": "certificador",
          "type": "address"
        }
      ],
      "name": "LogCertificadoEliminadoAddress",
      "type": "event"
    },
    {
      "anonymous": false,
      "inputs": [
        {
          "indexed": false,
          "internalType": "address",
          "name": "admin",
          "type": "address"
        },
        {
          "indexed": false,
          "internalType": "uint256",
          "name": "categoria",
          "type": "uint256"
        },
        {
          "indexed": false,
          "internalType": "uint256",
          "name": "curso",
          "type": "uint256"
        },
        {
          "indexed": false,
          "internalType": "string",
          "name": "nombreCurso",
          "type": "string"
        },
        {
          "indexed": false,
          "internalType": "string",
          "name": "descripcion",
          "type": "string"
        },
        {
          "indexed": false,
          "internalType": "uint256",
          "name": "duracion",
          "type": "uint256"
        },
        {
          "indexed": false,
          "internalType": "uint8",
          "name": "tipoCertificado",
          "type": "uint8"
        },
        {
          "indexed": false,
          "internalType": "address",
          "name": "certificador",
          "type": "address"
        },
        {
          "indexed": false,
          "internalType": "bool",
          "name": "activo",
          "type": "bool"
        }
      ],
      "name": "LogCursoCreado",
      "type": "event"
    },
    {
      "anonymous": false,
      "inputs": [
        {
          "indexed": false,
          "internalType": "address",
          "name": "admin",
          "type": "address"
        },
        {
          "indexed": false,
          "internalType": "uint256",
          "name": "categoria",
          "type": "uint256"
        },
        {
          "indexed": false,
          "internalType": "uint256",
          "name": "curso",
          "type": "uint256"
        },
        {
          "indexed": false,
          "internalType": "string",
          "name": "nombreCurso",
          "type": "string"
        },
        {
          "indexed": false,
          "internalType": "string",
          "name": "descripcion",
          "type": "string"
        },
        {
          "indexed": false,
          "internalType": "uint256",
          "name": "duracion",
          "type": "uint256"
        },
        {
          "indexed": false,
          "internalType": "uint8",
          "name": "tipoCertificado",
          "type": "uint8"
        },
        {
          "indexed": false,
          "internalType": "address",
          "name": "certificador",
          "type": "address"
        },
        {
          "indexed": false,
          "internalType": "bool",
          "name": "activo",
          "type": "bool"
        }
      ],
      "name": "LogCursoModificado",
      "type": "event"
    },
    {
      "anonymous": false,
      "inputs": [
        {
          "indexed": true,
          "internalType": "bytes32",
          "name": "role",
          "type": "bytes32"
        },
        {
          "indexed": true,
          "internalType": "bytes32",
          "name": "previousAdminRole",
          "type": "bytes32"
        },
        {
          "indexed": true,
          "internalType": "bytes32",
          "name": "newAdminRole",
          "type": "bytes32"
        }
      ],
      "name": "RoleAdminChanged",
      "type": "event"
    },
    {
      "anonymous": false,
      "inputs": [
        {
          "indexed": true,
          "internalType": "bytes32",
          "name": "role",
          "type": "bytes32"
        },
        {
          "indexed": true,
          "internalType": "address",
          "name": "account",
          "type": "address"
        },
        {
          "indexed": true,
          "internalType": "address",
          "name": "sender",
          "type": "address"
        }
      ],
      "name": "RoleGranted",
      "type": "event"
    },
    {
      "anonymous": false,
      "inputs": [
        {
          "indexed": true,
          "internalType": "bytes32",
          "name": "role",
          "type": "bytes32"
        },
        {
          "indexed": true,
          "internalType": "address",
          "name": "account",
          "type": "address"
        },
        {
          "indexed": true,
          "internalType": "address",
          "name": "sender",
          "type": "address"
        }
      ],
      "name": "RoleRevoked",
      "type": "event"
    },
    {
      "inputs": [],
      "name": "ADMIN",
      "outputs": [
        {
          "internalType": "bytes32",
          "name": "",
          "type": "bytes32"
        }
      ],
      "stateMutability": "view",
      "type": "function"
    },
    {
      "inputs": [],
      "name": "DEFAULT_ADMIN_ROLE",
      "outputs": [
        {
          "internalType": "bytes32",
          "name": "",
          "type": "bytes32"
        }
      ],
      "stateMutability": "view",
      "type": "function"
    },
    {
      "inputs": [
        {
          "internalType": "uint256",
          "name": "categoria",
          "type": "uint256"
        },
        {
          "internalType": "string",
          "name": "nombreCurso",
          "type": "string"
        },
        {
          "internalType": "string",
          "name": "descripcion",
          "type": "string"
        },
        {
          "internalType": "uint256",
          "name": "duracion",
          "type": "uint256"
        },
        {
          "internalType": "uint8",
          "name": "tipoCertificado",
          "type": "uint8"
        },
        {
          "internalType": "address",
          "name": "certificador",
          "type": "address"
        },
        {
          "internalType": "bool",
          "name": "activo",
          "type": "bool"
        }
      ],
      "name": "agregarCurso",
      "outputs": [],
      "stateMutability": "nonpayable",
      "type": "function"
    },
    {
      "inputs": [
        {
          "internalType": "uint256",
          "name": "",
          "type": "uint256"
        }
      ],
      "name": "arregloAdmins",
      "outputs": [
        {
          "internalType": "address",
          "name": "",
          "type": "address"
        }
      ],
      "stateMutability": "view",
      "type": "function"
    },
    {
      "inputs": [
        {
          "internalType": "uint256",
          "name": "",
          "type": "uint256"
        }
      ],
      "name": "arregloCategorias",
      "outputs": [
        {
          "internalType": "string",
          "name": "nombre",
          "type": "string"
        },
        {
          "internalType": "bool",
          "name": "activa",
          "type": "bool"
        }
      ],
      "stateMutability": "view",
      "type": "function"
    },
    {
      "inputs": [
        {
          "internalType": "uint256",
          "name": "",
          "type": "uint256"
        }
      ],
      "name": "arregloCursosPorCategoria",
      "outputs": [
        {
          "internalType": "uint256",
          "name": "",
          "type": "uint256"
        }
      ],
      "stateMutability": "view",
      "type": "function"
    },
    {
      "inputs": [
        {
          "internalType": "address[]",
          "name": "usuarios",
          "type": "address[]"
        },
        {
          "internalType": "string[]",
          "name": "nombres",
          "type": "string[]"
        },
        {
          "internalType": "uint256",
          "name": "categoria",
          "type": "uint256"
        },
        {
          "internalType": "uint256",
          "name": "curso",
          "type": "uint256"
        },
        {
          "internalType": "string",
          "name": "nombreCertificador",
          "type": "string"
        }
      ],
      "name": "certificarAddress",
      "outputs": [],
      "stateMutability": "nonpayable",
      "type": "function"
    },
    {
      "inputs": [
        {
          "internalType": "enum Pais[]",
          "name": "paises",
          "type": "uint8[]"
        },
        {
          "internalType": "uint256[]",
          "name": "idUsuarios",
          "type": "uint256[]"
        },
        {
          "internalType": "string[]",
          "name": "nombres",
          "type": "string[]"
        },
        {
          "internalType": "uint256",
          "name": "categoria",
          "type": "uint256"
        },
        {
          "internalType": "uint256",
          "name": "curso",
          "type": "uint256"
        },
        {
          "internalType": "string",
          "name": "nombreCertificador",
          "type": "string"
        }
      ],
      "name": "certificarId",
      "outputs": [],
      "stateMutability": "nonpayable",
      "type": "function"
    },
    {
      "inputs": [
        {
          "internalType": "address",
          "name": "admin",
          "type": "address"
        },
        {
          "internalType": "string",
          "name": "nombre",
          "type": "string"
        }
      ],
      "name": "crearAdmin",
      "outputs": [],
      "stateMutability": "nonpayable",
      "type": "function"
    },
    {
      "inputs": [
        {
          "internalType": "string",
          "name": "nombre",
          "type": "string"
        }
      ],
      "name": "crearCategoria",
      "outputs": [],
      "stateMutability": "nonpayable",
      "type": "function"
    },
    {
      "inputs": [
        {
          "internalType": "enum Pais",
          "name": "pais",
          "type": "uint8"
        },
        {
          "internalType": "uint256",
          "name": "usuario",
          "type": "uint256"
        }
      ],
      "name": "datosYCertificadosUsuario",
      "outputs": [
        {
          "components": [
            {
              "internalType": "uint256",
              "name": "categoria",
              "type": "uint256"
            },
            {
              "internalType": "uint256",
              "name": "curso",
              "type": "uint256"
            },
            {
              "internalType": "uint256",
              "name": "idCertificado",
              "type": "uint256"
            }
          ],
          "internalType": "struct Certificados.EstructuraCursoUsuario[]",
          "name": "",
          "type": "tuple[]"
        },
        {
          "internalType": "string",
          "name": "",
          "type": "string"
        }
      ],
      "stateMutability": "view",
      "type": "function"
    },
    {
      "inputs": [
        {
          "internalType": "address",
          "name": "usuario",
          "type": "address"
        }
      ],
      "name": "datosYCertificadosUsuarioAddress",
      "outputs": [
        {
          "components": [
            {
              "internalType": "uint256",
              "name": "categoria",
              "type": "uint256"
            },
            {
              "internalType": "uint256",
              "name": "curso",
              "type": "uint256"
            },
            {
              "internalType": "uint256",
              "name": "idCertificado",
              "type": "uint256"
            }
          ],
          "internalType": "struct Certificados.EstructuraCursoUsuario[]",
          "name": "",
          "type": "tuple[]"
        },
        {
          "internalType": "string",
          "name": "",
          "type": "string"
        }
      ],
      "stateMutability": "view",
      "type": "function"
    },
    {
      "inputs": [
        {
          "internalType": "address",
          "name": "usuario",
          "type": "address"
        },
        {
          "internalType": "uint256",
          "name": "categoria",
          "type": "uint256"
        },
        {
          "internalType": "uint256",
          "name": "curso",
          "type": "uint256"
        }
      ],
      "name": "eliminarCertificadoAddress",
      "outputs": [],
      "stateMutability": "nonpayable",
      "type": "function"
    },
    {
      "inputs": [
        {
          "internalType": "enum Pais",
          "name": "pais",
          "type": "uint8"
        },
        {
          "internalType": "uint256",
          "name": "usuario",
          "type": "uint256"
        },
        {
          "internalType": "uint256",
          "name": "categoria",
          "type": "uint256"
        },
        {
          "internalType": "uint256",
          "name": "curso",
          "type": "uint256"
        }
      ],
      "name": "eliminarCertificadoId",
      "outputs": [],
      "stateMutability": "nonpayable",
      "type": "function"
    },
    {
      "inputs": [
        {
          "internalType": "address",
          "name": "cuenta",
          "type": "address"
        }
      ],
      "name": "esAdmin",
      "outputs": [
        {
          "internalType": "bool",
          "name": "",
          "type": "bool"
        }
      ],
      "stateMutability": "view",
      "type": "function"
    },
    {
      "inputs": [
        {
          "internalType": "address",
          "name": "usuario",
          "type": "address"
        },
        {
          "internalType": "uint256",
          "name": "categoria",
          "type": "uint256"
        },
        {
          "internalType": "uint256",
          "name": "curso",
          "type": "uint256"
        }
      ],
      "name": "estaCertificadoAddress",
      "outputs": [
        {
          "internalType": "bool",
          "name": "",
          "type": "bool"
        }
      ],
      "stateMutability": "view",
      "type": "function"
    },
    {
      "inputs": [
        {
          "internalType": "enum Pais",
          "name": "pais",
          "type": "uint8"
        },
        {
          "internalType": "uint256",
          "name": "usuario",
          "type": "uint256"
        },
        {
          "internalType": "uint256",
          "name": "categoria",
          "type": "uint256"
        },
        {
          "internalType": "uint256",
          "name": "curso",
          "type": "uint256"
        }
      ],
      "name": "estaCertificadoId",
      "outputs": [
        {
          "internalType": "bool",
          "name": "",
          "type": "bool"
        }
      ],
      "stateMutability": "view",
      "type": "function"
    },
    {
      "inputs": [
        {
          "internalType": "bytes32",
          "name": "role",
          "type": "bytes32"
        }
      ],
      "name": "getRoleAdmin",
      "outputs": [
        {
          "internalType": "bytes32",
          "name": "",
          "type": "bytes32"
        }
      ],
      "stateMutability": "view",
      "type": "function"
    },
    {
      "inputs": [
        {
          "internalType": "bytes32",
          "name": "role",
          "type": "bytes32"
        },
        {
          "internalType": "address",
          "name": "account",
          "type": "address"
        }
      ],
      "name": "grantRole",
      "outputs": [],
      "stateMutability": "nonpayable",
      "type": "function"
    },
    {
      "inputs": [
        {
          "internalType": "bytes32",
          "name": "role",
          "type": "bytes32"
        },
        {
          "internalType": "address",
          "name": "account",
          "type": "address"
        }
      ],
      "name": "hasRole",
      "outputs": [
        {
          "internalType": "bool",
          "name": "",
          "type": "bool"
        }
      ],
      "stateMutability": "view",
      "type": "function"
    },
    {
      "inputs": [
        {
          "internalType": "address",
          "name": "",
          "type": "address"
        }
      ],
      "name": "mapAdmin",
      "outputs": [
        {
          "internalType": "uint256",
          "name": "indice",
          "type": "uint256"
        },
        {
          "internalType": "string",
          "name": "nombre",
          "type": "string"
        }
      ],
      "stateMutability": "view",
      "type": "function"
    },
    {
      "inputs": [
        {
          "internalType": "uint256",
          "name": "categoria",
          "type": "uint256"
        },
        {
          "internalType": "uint256",
          "name": "curso",
          "type": "uint256"
        }
      ],
      "name": "mapCurso",
      "outputs": [
        {
          "internalType": "string",
          "name": "nombreCurso",
          "type": "string"
        },
        {
          "internalType": "string",
          "name": "descripcion",
          "type": "string"
        },
        {
          "internalType": "uint256",
          "name": "duracion",
          "type": "uint256"
        },
        {
          "internalType": "uint8",
          "name": "tipoCertificado",
          "type": "uint8"
        },
        {
          "internalType": "address",
          "name": "certificador",
          "type": "address"
        },
        {
          "internalType": "bool",
          "name": "activo",
          "type": "bool"
        }
      ],
      "stateMutability": "view",
      "type": "function"
    },
    {
      "inputs": [
        {
          "internalType": "enum Pais",
          "name": "",
          "type": "uint8"
        },
        {
          "internalType": "uint256",
          "name": "usuario",
          "type": "uint256"
        }
      ],
      "name": "mapUsuario",
      "outputs": [
        {
          "internalType": "string",
          "name": "nombre",
          "type": "string"
        }
      ],
      "stateMutability": "view",
      "type": "function"
    },
    {
      "inputs": [
        {
          "internalType": "address",
          "name": "usuario",
          "type": "address"
        }
      ],
      "name": "mapUsuarioAddress",
      "outputs": [
        {
          "internalType": "string",
          "name": "nombre",
          "type": "string"
        }
      ],
      "stateMutability": "view",
      "type": "function"
    },
    {
      "inputs": [
        {
          "internalType": "uint256",
          "name": "categoria",
          "type": "uint256"
        },
        {
          "internalType": "string",
          "name": "nombre",
          "type": "string"
        },
        {
          "internalType": "bool",
          "name": "estado",
          "type": "bool"
        }
      ],
      "name": "modificarCategoria",
      "outputs": [],
      "stateMutability": "nonpayable",
      "type": "function"
    },
    {
      "inputs": [
        {
          "internalType": "address",
          "name": "cuentaAnterior",
          "type": "address"
        },
        {
          "internalType": "address",
          "name": "cuentaNueva",
          "type": "address"
        }
      ],
      "name": "modificarCuentaAdmin",
      "outputs": [],
      "stateMutability": "nonpayable",
      "type": "function"
    },
    {
      "inputs": [
        {
          "internalType": "uint256",
          "name": "categoria",
          "type": "uint256"
        },
        {
          "internalType": "uint256",
          "name": "curso",
          "type": "uint256"
        },
        {
          "internalType": "string",
          "name": "nombreCurso",
          "type": "string"
        },
        {
          "internalType": "string",
          "name": "descripcion",
          "type": "string"
        },
        {
          "internalType": "uint256",
          "name": "duracion",
          "type": "uint256"
        },
        {
          "internalType": "uint8",
          "name": "tipoCertificado",
          "type": "uint8"
        },
        {
          "internalType": "address",
          "name": "certificador",
          "type": "address"
        },
        {
          "internalType": "bool",
          "name": "activo",
          "type": "bool"
        }
      ],
      "name": "modificarCurso",
      "outputs": [],
      "stateMutability": "nonpayable",
      "type": "function"
    },
    {
      "inputs": [
        {
          "internalType": "address",
          "name": "admin",
          "type": "address"
        },
        {
          "internalType": "string",
          "name": "nombreNuevo",
          "type": "string"
        }
      ],
      "name": "modificarNombreAdmin",
      "outputs": [],
      "stateMutability": "nonpayable",
      "type": "function"
    },
    {
      "inputs": [],
      "name": "mostrarAdmins",
      "outputs": [
        {
          "internalType": "address[]",
          "name": "",
          "type": "address[]"
        },
        {
          "internalType": "string[]",
          "name": "",
          "type": "string[]"
        }
      ],
      "stateMutability": "view",
      "type": "function"
    },
    {
      "inputs": [],
      "name": "mostrarArregloCursosPorCategoria",
      "outputs": [
        {
          "internalType": "uint256[]",
          "name": "",
          "type": "uint256[]"
        }
      ],
      "stateMutability": "view",
      "type": "function"
    },
    {
      "inputs": [],
      "name": "mostrarArregloDeCategorias",
      "outputs": [
        {
          "components": [
            {
              "internalType": "string",
              "name": "nombre",
              "type": "string"
            },
            {
              "internalType": "bool",
              "name": "activa",
              "type": "bool"
            }
          ],
          "internalType": "struct Cursos.EstructuraCategoria[]",
          "name": "",
          "type": "tuple[]"
        }
      ],
      "stateMutability": "view",
      "type": "function"
    },
    {
      "inputs": [],
      "name": "mostrarCantidadDeCursos",
      "outputs": [
        {
          "internalType": "uint256",
          "name": "",
          "type": "uint256"
        }
      ],
      "stateMutability": "view",
      "type": "function"
    },
    {
      "inputs": [
        {
          "internalType": "uint256",
          "name": "categoria",
          "type": "uint256"
        },
        {
          "internalType": "uint256",
          "name": "curso",
          "type": "uint256"
        }
      ],
      "name": "mostrarCategoriaYCurso",
      "outputs": [
        {
          "internalType": "string",
          "name": "",
          "type": "string"
        },
        {
          "components": [
            {
              "internalType": "string",
              "name": "nombreCurso",
              "type": "string"
            },
            {
              "internalType": "string",
              "name": "descripcion",
              "type": "string"
            },
            {
              "internalType": "uint256",
              "name": "duracion",
              "type": "uint256"
            },
            {
              "internalType": "uint8",
              "name": "tipoCertificado",
              "type": "uint8"
            },
            {
              "internalType": "address",
              "name": "certificador",
              "type": "address"
            },
            {
              "internalType": "bool",
              "name": "activo",
              "type": "bool"
            }
          ],
          "internalType": "struct Cursos.EstructuraCurso",
          "name": "",
          "type": "tuple"
        }
      ],
      "stateMutability": "view",
      "type": "function"
    },
    {
      "inputs": [
        {
          "internalType": "address",
          "name": "admin",
          "type": "address"
        }
      ],
      "name": "removerAdmin",
      "outputs": [],
      "stateMutability": "nonpayable",
      "type": "function"
    },
    {
      "inputs": [
        {
          "internalType": "bytes32",
          "name": "role",
          "type": "bytes32"
        },
        {
          "internalType": "address",
          "name": "callerConfirmation",
          "type": "address"
        }
      ],
      "name": "renounceRole",
      "outputs": [],
      "stateMutability": "nonpayable",
      "type": "function"
    },
    {
      "inputs": [
        {
          "internalType": "bytes32",
          "name": "role",
          "type": "bytes32"
        },
        {
          "internalType": "address",
          "name": "account",
          "type": "address"
        }
      ],
      "name": "revokeRole",
      "outputs": [],
      "stateMutability": "nonpayable",
      "type": "function"
    },
    {
      "inputs": [
        {
          "internalType": "bytes4",
          "name": "interfaceId",
          "type": "bytes4"
        }
      ],
      "name": "supportsInterface",
      "outputs": [
        {
          "internalType": "bool",
          "name": "",
          "type": "bool"
        }
      ],
      "stateMutability": "view",
      "type": "function"
    }
  ],
  "transactionHash": "0xf370b306a1a6c9b67eb5e525ee983be6a3c0643c1a15244bd98682bdda5e915a",
  "args": [],
  "numDeployments": 1,
  "solcInputHash": "f4d613a136e95376f62ae166e04f2da9",
  "bytecode": "0x60806040523480156200001157600080fd5b506200001f6000336200005b565b5062000055336040518060400160405280600b81526020016a29aaa822a92fa0a226a4a760a91b8152506200010a60201b60201c565b62000532565b6000828152602081815260408083206001600160a01b038516845290915281205460ff1662000100576000838152602081815260408083206001600160a01b03861684529091529020805460ff19166001179055620000b73390565b6001600160a01b0316826001600160a01b0316847f2f8788117e7eff1d82e926ec794901d17c78024a50270940304540a733656f0d60405160405180910390a450600162000104565b5060005b92915050565b60006200011781620002f9565b6001600160a01b03831660009081527f5cbfc8ee58ca47855df7bcf648dd304ddb6b932f9b87878bdf6318d7ec7ee5b7602052604090205460ff1615620001a55760405162461bcd60e51b815260206004820152601960248201527f4375656e746120796120706f73656520726f6c2041444d494e0000000000000060448201526064015b60405180910390fd5b6001600160a01b038316620002095760405162461bcd60e51b815260206004820152602360248201527f4375656e74612061646d696e206e6f207075656465207365722061646472657360448201526207320360ec1b60648201526084016200019c565b6001600160a01b038316600090815260026020526040902060010162000230838262000406565b50600180546001600160a01b03851660008181526002602052604081208390558284018455929092527fb10e2d527612073b26eecdfd717e6a320cf44b4afac2b0732d9fcbe2b7fa0cf60180546001600160a01b0319169091179055620002b87fdf8b4c520ffe197c5343c6f5aec59570151ef9a492f2c624fd45ddde6135ec42846200005b565b507f0f2484d4ed3d6191c79a12f2340ff9483955231ba51001ea98c12d85846453658383604051620002ec929190620004d2565b60405180910390a1505050565b62000305813362000308565b50565b6000828152602081815260408083206001600160a01b038516845290915290205460ff166200035d5760405163e2517d3f60e01b81526001600160a01b0382166004820152602481018390526044016200019c565b5050565b634e487b7160e01b600052604160045260246000fd5b600181811c908216806200038c57607f821691505b602082108103620003ad57634e487b7160e01b600052602260045260246000fd5b50919050565b601f8211156200040157600081815260208120601f850160051c81016020861015620003dc5750805b601f850160051c820191505b81811015620003fd57828155600101620003e8565b5050505b505050565b81516001600160401b0381111562000422576200042262000361565b6200043a8162000433845462000377565b84620003b3565b602080601f831160018114620004725760008415620004595750858301515b600019600386901b1c1916600185901b178555620003fd565b600085815260208120601f198616915b82811015620004a35788860151825594840194600190910190840162000482565b5085821015620004c25787850151600019600388901b60f8161c191681555b5050505050600190811b01905550565b60018060a01b038316815260006020604081840152835180604085015260005b818110156200051057858101830151858201606001528201620004f2565b506000606082860101526060601f19601f830116850101925050509392505050565b61449980620005426000396000f3fe608060405234801561001057600080fd5b50600436106102275760003560e01c806385d0089811610130578063c9849fd2116100b8578063e9ebdb051161007c578063e9ebdb0514610524578063efb0a94f14610545578063f0e77fec1461054d578063f7f0dd7b14610560578063f88a46961461057357600080fd5b8063c9849fd2146104a5578063d20ba47e146104b8578063d51dddd7146104cb578063d547741f146104ec578063e86cb783146104ff57600080fd5b8063a217fddf116100ff578063a217fddf14610451578063aba3110f14610459578063b4e9b5b61461046c578063b8ad4b861461047f578063bee533e11461049257600080fd5b806385d00898146103e957806388db935e1461040a5780638ded0cb91461041d57806391d148541461043e57600080fd5b80632e43f40d116101b35780634e1ce428116101825780634e1ce428146103865780634e9aa0711461039b57806367f551a5146103ae57806379bfba95146103c157806382f4071c146103d657600080fd5b80632e43f40d146103155780632f2ff15d1461034057806336568abe146103535780633fa991bb1461036657600080fd5b8063158e7c51116101fa578063158e7c51146102965780631d582232146102a9578063248a9ca3146102bc578063248c26e2146102ed5780632a0acc6a1461030057600080fd5b80630120136c1461022c57806301ffc9a71461024b5780630c1feb2e1461026e5780630d32355914610283575b600080fd5b610234610586565b6040516102429291906133da565b60405180910390f35b61025e61025936600461347b565b61074b565b6040519015158152602001610242565b61028161027c3660046134b9565b610782565b005b610281610291366004613509565b610b2e565b61025e6102a4366004613509565b610d90565b6102816102b73660046135a9565b610daa565b6102df6102ca366004613682565b60009081526020819052604090206001015490565b604051908152602001610242565b6102816102fb36600461369b565b610f5b565b6102df60008051602061444483398151915281565b610328610323366004613682565b6110ce565b6040516001600160a01b039091168152602001610242565b61028161034e3660046136ed565b6110f8565b6102816103613660046136ed565b611123565b610379610374366004613509565b61115b565b6040516102429190613719565b61038e6111fb565b604051610242919061372c565b6102816103a9366004613791565b611253565b6102df6103bc366004613682565b6114a1565b6103c96114c2565b604051610242919061384e565b6102816103e43660046138c6565b6115c2565b6103fc6103f7366004613972565b611758565b60405161024292919061399c565b610281610418366004613a07565b6118fc565b61043061042b366004613682565b611c20565b604051610242929190613a3a565b61025e61044c3660046136ed565b611cdf565b6102df600081565b610379610467366004613972565b611d08565b61028161047a366004613a5e565b611d30565b61025e61048d366004613a07565b611fdb565b61025e6104a03660046134b9565b612132565b6103fc6104b3366004613509565b6122bf565b6102816104c6366004613b10565b6123eb565b6104de6104d9366004613509565b61252e565b604051610242929190613b6d565b6102816104fa3660046136ed565b6125d3565b61051261050d366004613b86565b6125f8565b60405161024296959493929190613ba8565b610537610532366004613b86565b612758565b604051610242929190613c01565b6102df6129ce565b61028161055b366004613c8b565b612a21565b61028161056e366004613cb5565b612c3e565b610281610581366004613d0c565b612d47565b60608060006001805490506001600160401b038111156105a8576105a8613cf6565b6040519080825280602002602001820160405280156105db57816020015b60608152602001906001900390816105c65790505b50905060005b6001548110156106e257600260006001838154811061060257610602613dcd565b60009182526020808320909101546001600160a01b031683528201929092526040019020600101805461063490613de3565b80601f016020809104026020016040519081016040528092919081815260200182805461066090613de3565b80156106ad5780601f10610682576101008083540402835291602001916106ad565b820191906000526020600020905b81548152906001019060200180831161069057829003601f168201915b50505050508282815181106106c4576106c4613dcd565b602002602001018190525080806106da90613e2d565b9150506105e1565b506001818180548060200260200160405190810160405280929190818152602001828054801561073b57602002820191906000526020600020905b81546001600160a01b0316815260019091019060200180831161071d575b5050505050915092509250509091565b60006001600160e01b03198216637965db0b60e01b148061077c57506301ffc9a760e01b6001600160e01b03198316145b92915050565b600082815260056020908152604080832084845290915290206003015461010090046001600160a01b031633146107d45760405162461bcd60e51b81526004016107cb90613e46565b60405180910390fd5b6107e084848484612132565b6107fc5760405162461bcd60e51b81526004016107cb90613e7d565b600082815260056020908152604080832084845290915290206003015461010090046001600160a01b03166108435760405162461bcd60e51b81526004016107cb90613ec1565b6000600760008660c381111561085b5761085b613eea565b60c381111561086c5761086c613eea565b81526020019081526020016000206000858152602001908152602001600020600001805480602002602001604051908101604052809291908181526020016000905b828210156108fe57838290600052602060002090600302016040518060600160405290816000820154815260200160018201548152602001600282015481525050815260200190600101906108ae565b5050505090506000805b8251811015610ae2578483828151811061092457610924613dcd565b60200260200101516000015114801561095957508383828151811061094b5761094b613dcd565b602002602001015160200151145b15610ad0576001915082600184516109719190613f00565b8151811061098157610981613dcd565b6020026020010151600760008960c381111561099f5761099f613eea565b60c38111156109b0576109b0613eea565b8152602001908152602001600020600088815260200190815260200160002060000182815481106109e3576109e3613dcd565b9060005260206000209060030201600082015181600001556020820151816001015560408201518160020155905050600760008860c3811115610a2857610a28613eea565b60c3811115610a3957610a39613eea565b81526020019081526020016000206000878152602001908152602001600020600001805480610a6a57610a6a613f13565b600082815260208120600360001990930192830201818155600181018290556002015590556040517fecdd44ed77b0efadbffcb19ceaa3cf4b9c16644e99deb227336c6d4486568ae990610ac79089908990899089903390613f4b565b60405180910390a15b80610ada81613e2d565b915050610908565b5080610b265760405162461bcd60e51b8152602060048201526013602482015272437572736f206e6f20656e636f6e747261646f60681b60448201526064016107cb565b505050505050565b6000610b3981612ef1565b610b5160008051602061444483398151915283611cdf565b610b9d5760405162461bcd60e51b815260206004820152601960248201527f4375656e7461206e6f20706f73656520726f6c2041444d494e0000000000000060448201526064016107cb565b610bb560008051602061444483398151915283612efe565b50600060026000846001600160a01b03166001600160a01b0316815260200190815260200160002060405180604001604052908160008201548152602001600182018054610c0290613de3565b80601f0160208091040260200160405190810160405280929190818152602001828054610c2e90613de3565b8015610c7b5780601f10610c5057610100808354040283529160200191610c7b565b820191906000526020600020905b815481529060010190602001808311610c5e57829003601f168201915b505050505081525050905060006001808080549050610c9a9190613f00565b81548110610caa57610caa613dcd565b6000918252602090912001548251600180546001600160a01b03909316935083929091908110610cdc57610cdc613dcd565b600091825260208083209190910180546001600160a01b0319166001600160a01b03948516179055845192841682526002905260409020556001805480610d2557610d25613f13565b6001900381819060005260206000200160006101000a8154906001600160a01b03021916905590557f1ef088f98cafffe55240b6a6a70d830adba6863e01024f5580dd90654eb519d5848360200151604051610d82929190613f85565b60405180910390a150505050565b600061077c60008051602061444483398151915283611cdf565b600084815260056020908152604080832086845290915290206003015461010090046001600160a01b03163314610df35760405162461bcd60e51b81526004016107cb90613e46565b6000848152600560209081526040808320868452909152902060030154600160a81b900460ff16610e585760405162461bcd60e51b815260206004820152600f60248201526e437572736f206e6f2061637469766f60881b60448201526064016107cb565b60005b87811015610f4e57610f3c8b8b83818110610e7857610e78613dcd565b9050602002016020810190610e8d9190613fa9565b8a8a84818110610e9f57610e9f613dcd565b90506020020135898985818110610eb857610eb8613dcd565b9050602002810190610eca9190613fc4565b8080601f01602080910402602001604051908101604052809392919081815260200183838082843760009201919091525050604080516020601f8b018190048102820181019092528981528c93508b9250908a908a9081908401838280828437600092019190915250612f7192505050565b80610f4681613e2d565b915050610e5b565b5050505050505050505050565b6000610f6681612ef1565b610f7e60008051602061444483398151915285611cdf565b610fbc5760405162461bcd60e51b815260206004820152600f60248201526e41646d696e206e6f2065786973746560881b60448201526064016107cb565b6001600160a01b03841660009081526002602052604081206001018054610fe290613de3565b80601f016020809104026020016040519081016040528092919081815260200182805461100e90613de3565b801561105b5780601f106110305761010080835404028352916020019161105b565b820191906000526020600020905b81548152906001019060200180831161103e57829003601f168201915b505050506001600160a01b038716600090815260026020526040902091925050600101611089848683614050565b507f506c2a30f6f1668947f0e53c368ea61d446e9d78927fef0388ce28dba59d9026858286866040516110bf9493929190614138565b60405180910390a15050505050565b600181815481106110de57600080fd5b6000918252602090912001546001600160a01b0316905081565b60008281526020819052604090206001015461111381612ef1565b61111d838361315f565b50505050565b6001600160a01b038116331461114c5760405163334bd91960e11b815260040160405180910390fd5b6111568282612efe565b505050565b600860205260009081526040902060018101805461117890613de3565b80601f01602080910402602001604051908101604052809291908181526020018280546111a490613de3565b80156111f15780601f106111c6576101008083540402835291602001916111f1565b820191906000526020600020905b8154815290600101906020018083116111d457829003601f168201915b5050505050905081565b6060600480548060200260200160405190810160405280929190818152602001828054801561124957602002820191906000526020600020905b815481526020019060010190808311611235575b5050505050905090565b60008051602061444483398151915261126b81612ef1565b60008b81526005602090815260408083208d845290915290206003015461010090046001600160a01b03166112b25760405162461bcd60e51b81526004016107cb90613ec1565b6001600160a01b0383166113085760405162461bcd60e51b815260206004820152601f60248201527f4164647265737320636572746966696361646f7220696e636f7272656374610060448201526064016107cb565b6040518060c001604052808a8a8080601f016020809104026020016040519081016040528093929190818152602001838380828437600092019190915250505090825250604080516020601f8b0181900481028201810190925289815291810191908a908a90819084018382808284376000920182905250938552505050602080830189905260ff88166040808501919091526001600160a01b03881660608501528615156080909401939093528e8252600581528282208e8352905220815181906113d4908261416f565b50602082015160018201906113e9908261416f565b506040828101516002830155606083015160039092018054608085015160a0909501511515600160a81b0260ff60a81b196001600160a01b03909616610100026001600160a81b031990921660ff90951694909417179390931691909117909155517fffe92cd24ba9317466011a441e832b5c253e791696e6d9e73edc0d066db8af289061148c9033908e908e908e908e908e908e908e908e908e908e9061422e565b60405180910390a15050505050505050505050565b600481815481106114b157600080fd5b600091825260209091200154905081565b60606003805480602002602001604051908101604052809291908181526020016000905b828210156115b9578382906000526020600020906002020160405180604001604052908160008201805461151990613de3565b80601f016020809104026020016040519081016040528092919081815260200182805461154590613de3565b80156115925780601f1061156757610100808354040283529160200191611592565b820191906000526020600020905b81548152906001019060200180831161157557829003601f168201915b505050918352505060019182015460ff1615156020918201529183529290920191016114e6565b50505050905090565b600084815260056020908152604080832086845290915290206003015461010090046001600160a01b0316331461160b5760405162461bcd60e51b81526004016107cb90613e46565b6000848152600560209081526040808320868452909152902060030154600160a81b900460ff166116705760405162461bcd60e51b815260206004820152600f60248201526e437572736f206e6f2061637469766f60881b60448201526064016107cb565b60005b8781101561174d5761173b89898381811061169057611690613dcd565b90506020020160208101906116a59190613509565b8888848181106116b7576116b7613dcd565b90506020028101906116c99190613fc4565b8080601f01602080910402602001604051908101604052809392919081815260200183838082843760009201919091525050604080516020601f8a018190048102820181019092528881528b93508a92509089908990819084018382808284376000920191909152506131e992505050565b8061174581613e2d565b915050611673565b505050505050505050565b606080600760008560c381111561177157611771613eea565b60c381111561178257611782613eea565b81526020019081526020016000206000848152602001908152602001600020600001600760008660c38111156117ba576117ba613eea565b60c38111156117cb576117cb613eea565b8152602001908152602001600020600085815260200190815260200160002060010181805480602002602001604051908101604052809291908181526020016000905b8282101561185e578382906000526020600020906003020160405180606001604052908160008201548152602001600182015481526020016002820154815250508152602001906001019061180e565b50505050915080805461187090613de3565b80601f016020809104026020016040519081016040528092919081815260200182805461189c90613de3565b80156118e95780601f106118be576101008083540402835291602001916118e9565b820191906000526020600020905b8154815290600101906020018083116118cc57829003601f168201915b50505050509050915091505b9250929050565b600082815260056020908152604080832084845290915290206003015461010090046001600160a01b031633146119455760405162461bcd60e51b81526004016107cb90613e46565b611950838383611fdb565b61196c5760405162461bcd60e51b81526004016107cb90613e7d565b600082815260056020908152604080832084845290915290206003015461010090046001600160a01b03166119b35760405162461bcd60e51b81526004016107cb90613ec1565b6001600160a01b038316600090815260086020908152604080832080548251818502810185019093528083529192909190849084015b82821015611a3957838290600052602060002090600302016040518060600160405290816000820154815260200160018201548152602001600282015481525050815260200190600101906119e9565b5050505090506000805b8251811015611bd55784838281518110611a5f57611a5f613dcd565b602002602001015160000151148015611a94575083838281518110611a8657611a86613dcd565b602002602001015160200151145b15611bc357600191508260018451611aac9190613f00565b81518110611abc57611abc613dcd565b602002602001015160086000886001600160a01b03166001600160a01b031681526020019081526020016000206000018281548110611afd57611afd613dcd565b6000918252602080832084516003909302019182558381015160018301556040938401516002909201919091556001600160a01b03891682526008905220805480611b4a57611b4a613f13565b600082815260208082206003600019949094019384020182815560018101839055600201919091559155604080516001600160a01b038916815291820187905281018590523360608201527f766692396ffc9fcb7f78a8c1ee872ffe80b92761161ce6857923429df295fd129060800160405180910390a15b80611bcd81613e2d565b915050611a43565b5080611c195760405162461bcd60e51b8152602060048201526013602482015272437572736f206e6f20656e636f6e747261646f60681b60448201526064016107cb565b5050505050565b60038181548110611c3057600080fd5b9060005260206000209060020201600091509050806000018054611c5390613de3565b80601f0160208091040260200160405190810160405280929190818152602001828054611c7f90613de3565b8015611ccc5780601f10611ca157610100808354040283529160200191611ccc565b820191906000526020600020905b815481529060010190602001808311611caf57829003601f168201915b5050506001909301549192505060ff1682565b6000918252602082815260408084206001600160a01b0393909316845291905290205460ff1690565b6007602090815260009283526040808420909152908252902060018101805461117890613de3565b600080516020614444833981519152611d4881612ef1565b60038a81548110611d5b57611d5b613dcd565b600091825260209091206001600290920201015460ff16611db45760405162461bcd60e51b815260206004820152601360248201527243617465676f726961206e6f2061637469766160681b60448201526064016107cb565b6001600160a01b038316611e0a5760405162461bcd60e51b815260206004820152601f60248201527f4164647265737320636572746966696361646f7220696e636f7272656374610060448201526064016107cb565b600060048b81548110611e1f57611e1f613dcd565b906000526020600020015490506040518060c001604052808b8b8080601f016020809104026020016040519081016040528093929190818152602001838380828437600092019190915250505090825250604080516020601f8c018190048102820181019092528a815291810191908b908b9081908401838280828437600092018290525093855250505060208083018a905260ff89166040808501919091526001600160a01b03891660608501528715156080909401939093528e82526005815282822085835290522081518190611ef8908261416f565b5060208201516001820190611f0d908261416f565b5060408201516002820155606082015160039091018054608084015160a0909401511515600160a81b0260ff60a81b196001600160a01b03909516610100026001600160a81b031990921660ff909416939093171792909216179055600480548c908110611f7d57611f7d613dcd565b60009182526020822001805491611f9383613e2d565b91905055507f09f50f412ffe01b017e1c54edd2bab97ef34e3cfcfcdb2177a71bc55515e986b338c838d8d8d8d8d8d8d8d60405161148c9b9a9998979695949392919061422e565b600082815260056020908152604080832084845290915281206003015461010090046001600160a01b03166120225760405162461bcd60e51b81526004016107cb90613ec1565b6001600160a01b038416600090815260086020908152604080832080548251818502810185019093528083529192909190849084015b828210156120a85783829060005260206000209060030201604051806060016040529081600082015481526020016001820154815260200160028201548152505081526020019060010190612058565b50505050905060005b815181101561212457848282815181106120cd576120cd613dcd565b6020026020010151600001511480156121025750838282815181106120f4576120f4613dcd565b602002602001015160200151145b156121125760019250505061212b565b8061211c81613e2d565b9150506120b1565b5060009150505b9392505050565b600082815260056020908152604080832084845290915281206003015461010090046001600160a01b03166121795760405162461bcd60e51b81526004016107cb90613ec1565b6000600760008760c381111561219157612191613eea565b60c38111156121a2576121a2613eea565b81526020019081526020016000206000868152602001908152602001600020600001805480602002602001604051908101604052809291908181526020016000905b8282101561223457838290600052602060002090600302016040518060600160405290816000820154815260200160018201548152602001600282015481525050815260200190600101906121e4565b50505050905060005b81518110156122b0578482828151811061225957612259613dcd565b60200260200101516000015114801561228e57508382828151811061228057612280613dcd565b602002602001015160200151145b1561229e576001925050506122b7565b806122a881613e2d565b91505061223d565b5060009150505b949350505050565b6001600160a01b0381166000908152600860209081526040808320805482518185028101850190935280835260609485949293600185019390928592909184015b828210156123505783829060005260206000209060030201604051806060016040529081600082015481526020016001820154815260200160028201548152505081526020019060010190612300565b50505050915080805461236290613de3565b80601f016020809104026020016040519081016040528092919081815260200182805461238e90613de3565b80156123db5780601f106123b0576101008083540402835291602001916123db565b820191906000526020600020905b8154815290600101906020018083116123be57829003601f168201915b5050505050905091509150915091565b60008051602061444483398151915261240381612ef1565b600354851061244a5760405162461bcd60e51b815260206004820152601360248201527243617465676f726961206e6f2065786973746560681b60448201526064016107cb565b6040805160606020601f8701819004028201810183529181018581526000928291908890889081908501838280828437600092019190915250505090825250841515602090910152600380549192508291889081106124ab576124ab613dcd565b6000918252602090912082516002909202019081906124ca908261416f565b50602091909101516001909101805460ff19169115159190911790556040517ff5901e1c3a9385b82b715c296eaaa24afb0e05c27b8b9e4fc7c55c51af5961709061251e90339089908990899089906142a6565b60405180910390a1505050505050565b6002602052600090815260409020805460018201805491929161255090613de3565b80601f016020809104026020016040519081016040528092919081815260200182805461257c90613de3565b80156125c95780601f1061259e576101008083540402835291602001916125c9565b820191906000526020600020905b8154815290600101906020018083116125ac57829003601f168201915b5050505050905082565b6000828152602081905260409020600101546125ee81612ef1565b61111d8383612efe565b600560209081526000928352604080842090915290825290208054819061261e90613de3565b80601f016020809104026020016040519081016040528092919081815260200182805461264a90613de3565b80156126975780601f1061266c57610100808354040283529160200191612697565b820191906000526020600020905b81548152906001019060200180831161267a57829003601f168201915b5050505050908060010180546126ac90613de3565b80601f01602080910402602001604051908101604052809291908181526020018280546126d890613de3565b80156127255780601f106126fa57610100808354040283529160200191612725565b820191906000526020600020905b81548152906001019060200180831161270857829003601f168201915b50505050600283015460039093015491929160ff808216925061010082046001600160a01b031691600160a81b90041686565b6040805160c08101825260608082526020820181905260009282018390528181018390526080820183905260a08201929092526003848154811061279e5761279e613dcd565b6000918252602080832087845260058252604080852088865290925292206002909102909101805490919082906127d490613de3565b80601f016020809104026020016040519081016040528092919081815260200182805461280090613de3565b801561284d5780601f106128225761010080835404028352916020019161284d565b820191906000526020600020905b81548152906001019060200180831161283057829003601f168201915b50505050509150806040518060c001604052908160008201805461287090613de3565b80601f016020809104026020016040519081016040528092919081815260200182805461289c90613de3565b80156128e95780601f106128be576101008083540402835291602001916128e9565b820191906000526020600020905b8154815290600101906020018083116128cc57829003601f168201915b5050505050815260200160018201805461290290613de3565b80601f016020809104026020016040519081016040528092919081815260200182805461292e90613de3565b801561297b5780601f106129505761010080835404028352916020019161297b565b820191906000526020600020905b81548152906001019060200180831161295e57829003601f168201915b50505091835250506002820154602082015260039091015460ff808216604084015261010082046001600160a01b03166060840152600160a81b9091041615156080909101529196919550909350505050565b60008060005b600454811015612a1b57600481815481106129f1576129f1613dcd565b906000526020600020015482612a0791906142e2565b915080612a1381613e2d565b9150506129d4565b50919050565b6000612a2c81612ef1565b612a4460008051602061444483398151915284611cdf565b612a825760405162461bcd60e51b815260206004820152600f60248201526e41646d696e206e6f2065786973746560881b60448201526064016107cb565b600060026000856001600160a01b03166001600160a01b0316815260200190815260200160002060405180604001604052908160008201548152602001600182018054612ace90613de3565b80601f0160208091040260200160405190810160405280929190818152602001828054612afa90613de3565b8015612b475780601f10612b1c57610100808354040283529160200191612b47565b820191906000526020600020905b815481529060010190602001808311612b2a57829003601f168201915b50505091909252505081516001600160a01b038616600090815260026020908152604090912091825583015192935060010191612b8591508261416f565b50826001826000015181548110612b9e57612b9e613dcd565b9060005260206000200160006101000a8154816001600160a01b0302191690836001600160a01b03160217905550612be460008051602061444483398151915285612efe565b50612bfd6000805160206144448339815191528461315f565b50604080516001600160a01b038087168252851660208201527f6ad0f817caf245a6d88f5fef3a76fc0678c819cf6a9a27e2666df5a8d8552beb9101610d82565b600080516020614444833981519152612c5681612ef1565b600380546040805160606020601f8801819004028201810183529181018681529293929091829190889088908190850183828082843760009201829052509385525050600160209384018190528554908101865594825250208151919260020201908190612cc4908261416f565b50602091909101516001918201805460ff191691151591909117905560048054808301825560009182527f8a35acfbc15ff81a39ae7d344fd709f28e8600b4aa8c65c6b64bfe7fe36bd19b01556040517ff5901e1c3a9385b82b715c296eaaa24afb0e05c27b8b9e4fc7c55c51af59617091610d829133918591899189916142a6565b6000612d5281612ef1565b612d6a60008051602061444483398151915284611cdf565b15612db75760405162461bcd60e51b815260206004820152601960248201527f4375656e746120796120706f73656520726f6c2041444d494e0000000000000060448201526064016107cb565b6001600160a01b038316612e195760405162461bcd60e51b815260206004820152602360248201527f4375656e74612061646d696e206e6f207075656465207365722061646472657360448201526207320360ec1b60648201526084016107cb565b6001600160a01b0383166000908152600260205260409020600101612e3e838261416f565b50600180546001600160a01b03851660008181526002602052604081208390558284018455929092527fb10e2d527612073b26eecdfd717e6a320cf44b4afac2b0732d9fcbe2b7fa0cf60180546001600160a01b0319169091179055612eb26000805160206144448339815191528461315f565b507f0f2484d4ed3d6191c79a12f2340ff9483955231ba51001ea98c12d85846453658383604051612ee4929190613f85565b60405180910390a1505050565b612efb813361334d565b50565b6000612f0a8383611cdf565b15612f69576000838152602081815260408083206001600160a01b0386168085529252808320805460ff1916905551339286917ff6391f5c32d9c69d2a47ea670b442974b53935d1edc7fd64eb21e047a839171b9190a450600161077c565b50600061077c565b612f7d86868585612132565b610b2657600760008760c3811115612f9757612f97613eea565b60c3811115612fa857612fa8613eea565b81526020808201929092526040908101600090812088825283528181208251606081018452878152808501878152600654828601908152835460018181018655948652948790209251600390950290920193845551918301919091555160029091015551613018918691016142f5565b60405160208183030381529060405280519060200120600760008860c381111561304457613044613eea565b60c381111561305557613055613eea565b815260200190815260200160002060008781526020019081526020016000206001016040516020016130879190614311565b60405160208183030381529060405280519060200120146130fa5783600760008860c38111156130b9576130b9613eea565b60c38111156130ca576130ca613eea565b8152602001908152602001600020600087815260200190815260200160002060010190816130f8919061416f565b505b6006547f6ed637a8263640b91a02e1fe0d7527934daff18620ff2560309b86d0b91244c1878787878733428960405161313a989796959493929190614387565b60405180910390a26006805490600061315283613e2d565b9190505550505050505050565b600061316b8383611cdf565b612f69576000838152602081815260408083206001600160a01b03861684529091529020805460ff191660011790556131a13390565b6001600160a01b0316826001600160a01b0316847f2f8788117e7eff1d82e926ec794901d17c78024a50270940304540a733656f0d60405160405180910390a450600161077c565b6131f4858484611fdb565b611c19576001600160a01b038516600090815260086020908152604080832081516060810183528781528084018781526006548285019081528354600181810186559488529686902092516003909702909201958655519185019190915551600290930192909255905161326a918691016142f5565b60408051601f1981840301815282825280516020918201206001600160a01b0389166000908152600883529290922091926132a9926001019101614311565b60405160208183030381529060405280519060200120146132eb576001600160a01b03851660009081526008602052604090206001016132e9858261416f565b505b6006547ff57a6a28124890c50d452731328864d2e42aec3cf5a37f72bc9791822283bbb38686868633428860405161332997969594939291906143f5565b60405180910390a26006805490600061334183613e2d565b91905055505050505050565b6133578282611cdf565b6133865760405163e2517d3f60e01b81526001600160a01b0382166004820152602481018390526044016107cb565b5050565b60005b838110156133a557818101518382015260200161338d565b50506000910152565b600081518084526133c681602086016020860161338a565b601f01601f19169290920160200192915050565b604080825283519082018190526000906020906060840190828701845b8281101561341c5781516001600160a01b0316845292840192908401906001016133f7565b50505083810382850152845180825282820190600581901b8301840187850160005b8381101561346c57601f1986840301855261345a8383516133ae565b9487019492509086019060010161343e565b50909998505050505050505050565b60006020828403121561348d57600080fd5b81356001600160e01b03198116811461212b57600080fd5b803560c481106134b457600080fd5b919050565b600080600080608085870312156134cf57600080fd5b6134d8856134a5565b966020860135965060408601359560600135945092505050565b80356001600160a01b03811681146134b457600080fd5b60006020828403121561351b57600080fd5b61212b826134f2565b60008083601f84011261353657600080fd5b5081356001600160401b0381111561354d57600080fd5b6020830191508360208260051b85010111156118f557600080fd5b60008083601f84011261357a57600080fd5b5081356001600160401b0381111561359157600080fd5b6020830191508360208285010111156118f557600080fd5b60008060008060008060008060008060c08b8d0312156135c857600080fd5b8a356001600160401b03808211156135df57600080fd5b6135eb8e838f01613524565b909c509a5060208d013591508082111561360457600080fd5b6136108e838f01613524565b909a50985060408d013591508082111561362957600080fd5b6136358e838f01613524565b909850965060608d0135955060808d0135945060a08d013591508082111561365c57600080fd5b506136698d828e01613568565b915080935050809150509295989b9194979a5092959850565b60006020828403121561369457600080fd5b5035919050565b6000806000604084860312156136b057600080fd5b6136b9846134f2565b925060208401356001600160401b038111156136d457600080fd5b6136e086828701613568565b9497909650939450505050565b6000806040838503121561370057600080fd5b82359150613710602084016134f2565b90509250929050565b60208152600061212b60208301846133ae565b6020808252825182820181905260009190848201906040850190845b8181101561376457835183529284019291840191600101613748565b50909695505050505050565b803560ff811681146134b457600080fd5b803580151581146134b457600080fd5b6000806000806000806000806000806101008b8d0312156137b157600080fd5b8a35995060208b0135985060408b01356001600160401b03808211156137d657600080fd5b6137e28e838f01613568565b909a50985060608d01359150808211156137fb57600080fd5b506138088d828e01613568565b90975095505060808b0135935061382160a08c01613770565b925061382f60c08c016134f2565b915061383d60e08c01613781565b90509295989b9194979a5092959850565b60006020808301818452808551808352604092508286019150828160051b87010184880160005b838110156138b857888303603f1901855281518051878552613899888601826133ae565b9189015115159489019490945294870194925090860190600101613875565b509098975050505050505050565b60008060008060008060008060a0898b0312156138e257600080fd5b88356001600160401b03808211156138f957600080fd5b6139058c838d01613524565b909a50985060208b013591508082111561391e57600080fd5b61392a8c838d01613524565b909850965060408b0135955060608b0135945060808b013591508082111561395157600080fd5b5061395e8b828c01613568565b999c989b5096995094979396929594505050565b6000806040838503121561398557600080fd5b61398e836134a5565b946020939093013593505050565b6040808252835182820181905260009190606090818501906020808901865b838110156139e85781518051865283810151848701528701518786015293850193908201906001016139bb565b505086830390870152506139fc81876133ae565b979650505050505050565b600080600060608486031215613a1c57600080fd5b613a25846134f2565b95602085013595506040909401359392505050565b604081526000613a4d60408301856133ae565b905082151560208301529392505050565b600080600080600080600080600060e08a8c031215613a7c57600080fd5b8935985060208a01356001600160401b0380821115613a9a57600080fd5b613aa68d838e01613568565b909a50985060408c0135915080821115613abf57600080fd5b50613acc8c828d01613568565b90975095505060608a01359350613ae560808b01613770565b9250613af360a08b016134f2565b9150613b0160c08b01613781565b90509295985092959850929598565b60008060008060608587031215613b2657600080fd5b8435935060208501356001600160401b03811115613b4357600080fd5b613b4f87828801613568565b9094509250613b62905060408601613781565b905092959194509250565b8281526040602082015260006122b760408301846133ae565b60008060408385031215613b9957600080fd5b50508035926020909101359150565b60c081526000613bbb60c08301896133ae565b8281036020840152613bcd81896133ae565b6040840197909752505060ff9390931660608401526001600160a01b03919091166080830152151560a09091015292915050565b604081526000613c1460408301856133ae565b8281036020840152835160c08252613c2f60c08301826133ae565b905060208501518282036020840152613c4882826133ae565b6040878101519085015260608088015160ff16908501526080808801516001600160a01b03169085015260a0968701511515969093019590955250949350505050565b60008060408385031215613c9e57600080fd5b613ca7836134f2565b9150613710602084016134f2565b60008060208385031215613cc857600080fd5b82356001600160401b03811115613cde57600080fd5b613cea85828601613568565b90969095509350505050565b634e487b7160e01b600052604160045260246000fd5b60008060408385031215613d1f57600080fd5b613d28836134f2565b915060208301356001600160401b0380821115613d4457600080fd5b818501915085601f830112613d5857600080fd5b813581811115613d6a57613d6a613cf6565b604051601f8201601f19908116603f01168101908382118183101715613d9257613d92613cf6565b81604052828152886020848701011115613dab57600080fd5b8260208601602083013760006020848301015280955050505050509250929050565b634e487b7160e01b600052603260045260246000fd5b600181811c90821680613df757607f821691505b602082108103612a1b57634e487b7160e01b600052602260045260246000fd5b634e487b7160e01b600052601160045260246000fd5b600060018201613e3f57613e3f613e17565b5060010190565b6020808252601d908201527f4e6f206175746f72697a61646f2070617261206573746520637572736f000000604082015260600190565b60208082526024908201527f5573756172696f206e6f20636572746966696361646f20656e206573746520636040820152637572736f60e01b606082015260800190565b6020808252600f908201526e437572736f206e6f2065786973746560881b604082015260600190565b634e487b7160e01b600052602160045260246000fd5b8181038181111561077c5761077c613e17565b634e487b7160e01b600052603160045260246000fd5b60c48110613f4757634e487b7160e01b600052602160045260246000fd5b9052565b60a08101613f598288613f29565b6020820195909552604081019390935260608301919091526001600160a01b0316608090910152919050565b6001600160a01b03831681526040602082018190526000906122b7908301846133ae565b600060208284031215613fbb57600080fd5b61212b826134a5565b6000808335601e19843603018112613fdb57600080fd5b8301803591506001600160401b03821115613ff557600080fd5b6020019150368190038213156118f557600080fd5b601f82111561115657600081815260208120601f850160051c810160208610156140315750805b601f850160051c820191505b81811015610b265782815560010161403d565b6001600160401b0383111561406757614067613cf6565b61407b836140758354613de3565b8361400a565b6000601f8411600181146140af57600085156140975750838201355b600019600387901b1c1916600186901b178355611c19565b600083815260209020601f19861690835b828110156140e057868501358255602094850194600190920191016140c0565b50868210156140fd5760001960f88860031b161c19848701351681555b505060018560011b0183555050505050565b81835281816020850137506000828201602090810191909152601f909101601f19169091010190565b6001600160a01b038516815260606020820181905260009061415c908301866133ae565b82810360408401526139fc81858761410f565b81516001600160401b0381111561418857614188613cf6565b61419c816141968454613de3565b8461400a565b602080601f8311600181146141d157600084156141b95750858301515b600019600386901b1c1916600185901b178555610b26565b600085815260208120601f198616915b82811015614200578886015182559484019460019091019084016141e1565b508582101561421e5787850151600019600388901b60f8161c191681555b5050505050600190811b01905550565b600061012060018060a01b03808f1684528d60208501528c604085015281606085015261425e8285018c8e61410f565b91508382036080850152614273828a8c61410f565b60a085019890985260ff9690961660c084015250509190921660e082015290151561010090910152979650505050505050565b60018060a01b03861681528460208201526080604082015260006142ce60808301858761410f565b905082151560608301529695505050505050565b8082018082111561077c5761077c613e17565b6000825161430781846020870161338a565b9190910192915050565b600080835461431f81613de3565b60018281168015614337576001811461434c5761437b565b60ff198416875282151583028701945061437b565b8760005260208060002060005b858110156143725781548a820152908401908201614359565b50505082870194505b50929695505050505050565b6000610100614396838c613f29565b8960208401528060408401526143ae8184018a6133ae565b60608401899052608084018890526001600160a01b03871660a085015260c0840186905283810360e085015290506143e681856133ae565b9b9a5050505050505050505050565b600060018060a01b03808a16835260e0602084015261441760e084018a6133ae565b88604085015287606085015281871660808501528560a085015283810360c08501526143e681866133ae56fedf8b4c520ffe197c5343c6f5aec59570151ef9a492f2c624fd45ddde6135ec42a26469706673582212209797e70ac0a7b67e81c162705907358122b7d88eafca7dbd5e98174de9caba4a64736f6c63430008140033",
  "devdoc": {
    "errors": {
      "AccessControlBadConfirmation()": [
        {
          "details": "The caller of a function is not the expected one. NOTE: Don't confuse with {AccessControlUnauthorizedAccount}."
        }
      ],
      "AccessControlUnauthorizedAccount(address,bytes32)": [
        {
          "details": "The `account` is missing a role."
        }
      ]
    },
    "events": {
      "RoleAdminChanged(bytes32,bytes32,bytes32)": {
        "details": "Emitted when `newAdminRole` is set as ``role``'s admin role, replacing `previousAdminRole` `DEFAULT_ADMIN_ROLE` is the starting admin for all roles, despite {RoleAdminChanged} not being emitted signaling this."
      },
      "RoleGranted(bytes32,address,address)": {
        "details": "Emitted when `account` is granted `role`. `sender` is the account that originated the contract call. This account bears the admin role (for the granted role). Expected in cases where the role was granted using the internal {AccessControl-_grantRole}."
      },
      "RoleRevoked(bytes32,address,address)": {
        "details": "Emitted when `account` is revoked `role`. `sender` is the account that originated the contract call:   - if using `revokeRole`, it is the admin role bearer   - if using `renounceRole`, it is the role bearer (i.e. `account`)"
      }
    },
    "kind": "dev",
    "methods": {
      "getRoleAdmin(bytes32)": {
        "details": "Returns the admin role that controls `role`. See {grantRole} and {revokeRole}. To change a role's admin, use {_setRoleAdmin}."
      },
      "grantRole(bytes32,address)": {
        "details": "Grants `role` to `account`. If `account` had not been already granted `role`, emits a {RoleGranted} event. Requirements: - the caller must have ``role``'s admin role. May emit a {RoleGranted} event."
      },
      "hasRole(bytes32,address)": {
        "details": "Returns `true` if `account` has been granted `role`."
      },
      "renounceRole(bytes32,address)": {
        "details": "Revokes `role` from the calling account. Roles are often managed via {grantRole} and {revokeRole}: this function's purpose is to provide a mechanism for accounts to lose their privileges if they are compromised (such as when a trusted device is misplaced). If the calling account had been revoked `role`, emits a {RoleRevoked} event. Requirements: - the caller must be `callerConfirmation`. May emit a {RoleRevoked} event."
      },
      "revokeRole(bytes32,address)": {
        "details": "Revokes `role` from `account`. If `account` had been granted `role`, emits a {RoleRevoked} event. Requirements: - the caller must have ``role``'s admin role. May emit a {RoleRevoked} event."
      },
      "supportsInterface(bytes4)": {
        "details": "See {IERC165-supportsInterface}."
      }
    },
    "version": 1
  },
  "userdoc": {
    "kind": "user",
    "methods": {},
    "version": 1
  },
  "storageLayout": {
    "storage": [
      {
        "astId": 26,
        "contract": "contracts/Certificados.sol:Certificados",
        "label": "_roles",
        "offset": 0,
        "slot": "0",
        "type": "t_mapping(t_bytes32,t_struct(RoleData)21_storage)"
      },
      {
        "astId": 458,
        "contract": "contracts/Certificados.sol:Certificados",
        "label": "arregloAdmins",
        "offset": 0,
        "slot": "1",
        "type": "t_array(t_address)dyn_storage"
      },
      {
        "astId": 463,
        "contract": "contracts/Certificados.sol:Certificados",
        "label": "mapAdmin",
        "offset": 0,
        "slot": "2",
        "type": "t_mapping(t_address,t_struct(EstructuraAdmin)455_storage)"
      },
      {
        "astId": 1715,
        "contract": "contracts/Certificados.sol:Certificados",
        "label": "arregloCategorias",
        "offset": 0,
        "slot": "3",
        "type": "t_array(t_struct(EstructuraCategoria)1711_storage)dyn_storage"
      },
      {
        "astId": 1821,
        "contract": "contracts/Certificados.sol:Certificados",
        "label": "arregloCursosPorCategoria",
        "offset": 0,
        "slot": "4",
        "type": "t_array(t_uint256)dyn_storage"
      },
      {
        "astId": 1828,
        "contract": "contracts/Certificados.sol:Certificados",
        "label": "mapCurso",
        "offset": 0,
        "slot": "5",
        "type": "t_mapping(t_uint256,t_mapping(t_uint256,t_struct(EstructuraCurso)1818_storage))"
      },
      {
        "astId": 844,
        "contract": "contracts/Certificados.sol:Certificados",
        "label": "certificadoContador",
        "offset": 0,
        "slot": "6",
        "type": "t_uint256"
      },
      {
        "astId": 866,
        "contract": "contracts/Certificados.sol:Certificados",
        "label": "mapUsuario",
        "offset": 0,
        "slot": "7",
        "type": "t_mapping(t_enum(Pais)2245,t_mapping(t_uint256,t_struct(EstructuraUsuario)858_storage))"
      },
      {
        "astId": 1295,
        "contract": "contracts/Certificados.sol:Certificados",
        "label": "mapUsuarioAddress",
        "offset": 0,
        "slot": "8",
        "type": "t_mapping(t_address,t_struct(EstructuraUsuario)858_storage)"
      }
    ],
    "types": {
      "t_address": {
        "encoding": "inplace",
        "label": "address",
        "numberOfBytes": "20"
      },
      "t_array(t_address)dyn_storage": {
        "base": "t_address",
        "encoding": "dynamic_array",
        "label": "address[]",
        "numberOfBytes": "32"
      },
      "t_array(t_struct(EstructuraCategoria)1711_storage)dyn_storage": {
        "base": "t_struct(EstructuraCategoria)1711_storage",
        "encoding": "dynamic_array",
        "label": "struct Cursos.EstructuraCategoria[]",
        "numberOfBytes": "32"
      },
      "t_array(t_struct(EstructuraCursoUsuario)851_storage)dyn_storage": {
        "base": "t_struct(EstructuraCursoUsuario)851_storage",
        "encoding": "dynamic_array",
        "label": "struct Certificados.EstructuraCursoUsuario[]",
        "numberOfBytes": "32"
      },
      "t_array(t_uint256)dyn_storage": {
        "base": "t_uint256",
        "encoding": "dynamic_array",
        "label": "uint256[]",
        "numberOfBytes": "32"
      },
      "t_bool": {
        "encoding": "inplace",
        "label": "bool",
        "numberOfBytes": "1"
      },
      "t_bytes32": {
        "encoding": "inplace",
        "label": "bytes32",
        "numberOfBytes": "32"
      },
      "t_enum(Pais)2245": {
        "encoding": "inplace",
        "label": "enum Pais",
        "numberOfBytes": "1"
      },
      "t_mapping(t_address,t_bool)": {
        "encoding": "mapping",
        "key": "t_address",
        "label": "mapping(address => bool)",
        "numberOfBytes": "32",
        "value": "t_bool"
      },
      "t_mapping(t_address,t_struct(EstructuraAdmin)455_storage)": {
        "encoding": "mapping",
        "key": "t_address",
        "label": "mapping(address => struct Admin.EstructuraAdmin)",
        "numberOfBytes": "32",
        "value": "t_struct(EstructuraAdmin)455_storage"
      },
      "t_mapping(t_address,t_struct(EstructuraUsuario)858_storage)": {
        "encoding": "mapping",
        "key": "t_address",
        "label": "mapping(address => struct Certificados.EstructuraUsuario)",
        "numberOfBytes": "32",
        "value": "t_struct(EstructuraUsuario)858_storage"
      },
      "t_mapping(t_bytes32,t_struct(RoleData)21_storage)": {
        "encoding": "mapping",
        "key": "t_bytes32",
        "label": "mapping(bytes32 => struct AccessControl.RoleData)",
        "numberOfBytes": "32",
        "value": "t_struct(RoleData)21_storage"
      },
      "t_mapping(t_enum(Pais)2245,t_mapping(t_uint256,t_struct(EstructuraUsuario)858_storage))": {
        "encoding": "mapping",
        "key": "t_enum(Pais)2245",
        "label": "mapping(enum Pais => mapping(uint256 => struct Certificados.EstructuraUsuario))",
        "numberOfBytes": "32",
        "value": "t_mapping(t_uint256,t_struct(EstructuraUsuario)858_storage)"
      },
      "t_mapping(t_uint256,t_mapping(t_uint256,t_struct(EstructuraCurso)1818_storage))": {
        "encoding": "mapping",
        "key": "t_uint256",
        "label": "mapping(uint256 => mapping(uint256 => struct Cursos.EstructuraCurso))",
        "numberOfBytes": "32",
        "value": "t_mapping(t_uint256,t_struct(EstructuraCurso)1818_storage)"
      },
      "t_mapping(t_uint256,t_struct(EstructuraCurso)1818_storage)": {
        "encoding": "mapping",
        "key": "t_uint256",
        "label": "mapping(uint256 => struct Cursos.EstructuraCurso)",
        "numberOfBytes": "32",
        "value": "t_struct(EstructuraCurso)1818_storage"
      },
      "t_mapping(t_uint256,t_struct(EstructuraUsuario)858_storage)": {
        "encoding": "mapping",
        "key": "t_uint256",
        "label": "mapping(uint256 => struct Certificados.EstructuraUsuario)",
        "numberOfBytes": "32",
        "value": "t_struct(EstructuraUsuario)858_storage"
      },
      "t_string_storage": {
        "encoding": "bytes",
        "label": "string",
        "numberOfBytes": "32"
      },
      "t_struct(EstructuraAdmin)455_storage": {
        "encoding": "inplace",
        "label": "struct Admin.EstructuraAdmin",
        "members": [
          {
            "astId": 452,
            "contract": "contracts/Certificados.sol:Certificados",
            "label": "indice",
            "offset": 0,
            "slot": "0",
            "type": "t_uint256"
          },
          {
            "astId": 454,
            "contract": "contracts/Certificados.sol:Certificados",
            "label": "nombre",
            "offset": 0,
            "slot": "1",
            "type": "t_string_storage"
          }
        ],
        "numberOfBytes": "64"
      },
      "t_struct(EstructuraCategoria)1711_storage": {
        "encoding": "inplace",
        "label": "struct Cursos.EstructuraCategoria",
        "members": [
          {
            "astId": 1708,
            "contract": "contracts/Certificados.sol:Certificados",
            "label": "nombre",
            "offset": 0,
            "slot": "0",
            "type": "t_string_storage"
          },
          {
            "astId": 1710,
            "contract": "contracts/Certificados.sol:Certificados",
            "label": "activa",
            "offset": 0,
            "slot": "1",
            "type": "t_bool"
          }
        ],
        "numberOfBytes": "64"
      },
      "t_struct(EstructuraCurso)1818_storage": {
        "encoding": "inplace",
        "label": "struct Cursos.EstructuraCurso",
        "members": [
          {
            "astId": 1807,
            "contract": "contracts/Certificados.sol:Certificados",
            "label": "nombreCurso",
            "offset": 0,
            "slot": "0",
            "type": "t_string_storage"
          },
          {
            "astId": 1809,
            "contract": "contracts/Certificados.sol:Certificados",
            "label": "descripcion",
            "offset": 0,
            "slot": "1",
            "type": "t_string_storage"
          },
          {
            "astId": 1811,
            "contract": "contracts/Certificados.sol:Certificados",
            "label": "duracion",
            "offset": 0,
            "slot": "2",
            "type": "t_uint256"
          },
          {
            "astId": 1813,
            "contract": "contracts/Certificados.sol:Certificados",
            "label": "tipoCertificado",
            "offset": 0,
            "slot": "3",
            "type": "t_uint8"
          },
          {
            "astId": 1815,
            "contract": "contracts/Certificados.sol:Certificados",
            "label": "certificador",
            "offset": 1,
            "slot": "3",
            "type": "t_address"
          },
          {
            "astId": 1817,
            "contract": "contracts/Certificados.sol:Certificados",
            "label": "activo",
            "offset": 21,
            "slot": "3",
            "type": "t_bool"
          }
        ],
        "numberOfBytes": "128"
      },
      "t_struct(EstructuraCursoUsuario)851_storage": {
        "encoding": "inplace",
        "label": "struct Certificados.EstructuraCursoUsuario",
        "members": [
          {
            "astId": 846,
            "contract": "contracts/Certificados.sol:Certificados",
            "label": "categoria",
            "offset": 0,
            "slot": "0",
            "type": "t_uint256"
          },
          {
            "astId": 848,
            "contract": "contracts/Certificados.sol:Certificados",
            "label": "curso",
            "offset": 0,
            "slot": "1",
            "type": "t_uint256"
          },
          {
            "astId": 850,
            "contract": "contracts/Certificados.sol:Certificados",
            "label": "idCertificado",
            "offset": 0,
            "slot": "2",
            "type": "t_uint256"
          }
        ],
        "numberOfBytes": "96"
      },
      "t_struct(EstructuraUsuario)858_storage": {
        "encoding": "inplace",
        "label": "struct Certificados.EstructuraUsuario",
        "members": [
          {
            "astId": 855,
            "contract": "contracts/Certificados.sol:Certificados",
            "label": "arregloCursosUsuario",
            "offset": 0,
            "slot": "0",
            "type": "t_array(t_struct(EstructuraCursoUsuario)851_storage)dyn_storage"
          },
          {
            "astId": 857,
            "contract": "contracts/Certificados.sol:Certificados",
            "label": "nombre",
            "offset": 0,
            "slot": "1",
            "type": "t_string_storage"
          }
        ],
        "numberOfBytes": "64"
      },
      "t_struct(RoleData)21_storage": {
        "encoding": "inplace",
        "label": "struct AccessControl.RoleData",
        "members": [
          {
            "astId": 18,
            "contract": "contracts/Certificados.sol:Certificados",
            "label": "hasRole",
            "offset": 0,
            "slot": "0",
            "type": "t_mapping(t_address,t_bool)"
          },
          {
            "astId": 20,
            "contract": "contracts/Certificados.sol:Certificados",
            "label": "adminRole",
            "offset": 0,
            "slot": "1",
            "type": "t_bytes32"
          }
        ],
        "numberOfBytes": "64"
      },
      "t_uint256": {
        "encoding": "inplace",
        "label": "uint256",
        "numberOfBytes": "32"
      },
      "t_uint8": {
        "encoding": "inplace",
        "label": "uint8",
        "numberOfBytes": "1"
      }
    }
  }
}